:020000040800F2
:10000000F8080020B10200085B2A000871290008E6
:10001000592A0008F1040008DD360008000000003D
:10002000000000000000000000000000D92E0008C1
:10003000F3040008000000005F2A0008DB2E00081F
:10004000CB020008CB020008CB020008CB0200085C
:10005000CB020008CB020008CB020008CB0200084C
:10006000CB020008CB020008CB020008CB0200083C
:10007000CB020008CB020008CB020008CB0200082C
:10008000CB020008CB020008CB020008CB0200081C
:10009000CB020008CB020008CB020008CB0200080C
:1000A000CB020008CB020008CB020008CB020008FC
:1000B000CB020008CB020008CB020008CB020008EC
:1000C000CB020008CB020008CB020008CB020008DC
:1000D000CB020008CB020008CB020008CB020008CC
:1000E000CB020008CB02000800000000CB02000891
:1000F000CB020008CB020008CB020008CB020008AC
:10010000CB020008CB020008CB020008CB0200089B
:10011000CB020008CB020008CB020008CB0200088B
:10012000CB020008CB020008CB020008CB0200087B
:10013000CB020008CB020008CB020008CB0200086B
:1001400000000000000000000000000000000000AF
:10015000CB020008CB020008CB020008CB0200084B
:10016000CB020008CB020008CB020008CB0200083B
:10017000CB020008CB020008CB020008CB0200082B
:10018000CB020008CB020008CB020008CB0200081B
:10019000CB020008CB020008CB020008CB0200080B
:1001A000CB020008CB020008CB020008CB020008FB
:1001B0008D2C0008CB020008CB020008CB020008FF
:1001C000CB020008CB020008CB020008CB020008DB
:1001D000CB020008CB020008CB020008CB020008CB
:1001E000CB020008CB020008CB020008CB020008BB
:1001F000CB020008CB020008CB020008CB020008AB
:10020000CB020008CB020008CB020008CB0200089A
:10021000CB020008CB020008CB020008CB0200088A
:10022000CB020008CB020008CB020008000000004F
:10023000CB020008CB02000800000000CB0200083F
:10024000CB020008CB020008CB020008CB0200085A
:10025000CB020008CB020008CB020008CB0200084A
:10026000CB020008CB020008CB020008CB0200083A
:10027000CB020008CB020008CB02000800000000FF
:10028000CB020008CB020008CB02000800000000EF
:1002900000000000CB020008DFF810D000F07CF86E
:1002A000004800471F370008AFF30080F80800201F
:1002B0000648804706480047FEE7FEE7FEE7FEE700
:1002C000FEE7FEE7FEE7FEE7FEE7FEE7B52F0008E4
:1002D000990200082DE9F05F0546002092469B46F2
:1002E00088460646814640241BE02846414647464C
:1002F000224600F041F853465A46C01A914110D3A5
:1003000011461846224600F028F82D1A67EB01081E
:100310004F4622460120002100F01FF817EB00098C
:100320004E41201EA4F10104DFDC484631462A4636
:100330004346BDE8F09FD2B201E000F8012B491E10
:10034000FBD270470022F6E710B513460A46044672
:100350001946FFF7F0FF204610BD202A04DB203AA3
:1003600000FA02F1002070479140C2F1200320FA08
:1003700003F3194390407047202A04DB203A21FA06
:1003800002F00021704721FA02F3D040C2F12002AE
:100390009140084319467047064C074D06E0E06857
:1003A00040F0010394E8070098471034AC42F6D3BC
:1003B000FFF776FF783700089837000870B5154DBD
:1003C000002403E0002005F8010B641C4C2CF9D339
:1003D000114810490860084600F076FB08B101207A
:1003E00070BD01200B49486001210A48816010213D
:1003F000C160192101614FF4807141610021816167
:10040000C161016200F066FC08B10120E8E700204C
:10041000E6E70000140000200050005208B5002458
:100420004FF010400090012080F3108800BF01F0D1
:10043000F3FC00204FF0E02108614861886100BFB3
:1004400008E04FF0FF31114840F82410104840F800
:100450002410641C082CF4D3002080F3108800BF03
:10046000009845680099086880F3088800BF00205C
:1004700080F3148800BFA84707E04FF400510548F7
:1004800000F01AFA642000F037F8F6E780E100E0A7
:1004900080E200E00008025800B591B0382103A8BE
:1004A000FFF750FF0020019002904FF480700990F8
:1004B0004001069000200B900E900F901090EB20C2
:1004C00003904FF440600A9080030C90062008903F
:1004D00000200290019001AA03A9044800F050FCFA
:1004E00010B1012011B000BD0020FBE71400002076
:1004F000FEE770477047000070B5044600F0EAF967
:100500000546601C02D004480078044400F0E2F97B
:10051000401BA042FAD370BD000000202DE9F04F2F
:100520004F4D00224FF0010A4FF00F0B92E000BF39
:100530000AFA02F919EA01037ED022F0030606F155
:10054000B0469407D6F808C4270FDFF818810BFAD5
:1005500007FE40450EEA0C0402D14FF0000C40E0CB
:10056000DFF804C1604502D14FF0010C39E0DFF83B
:10057000FCC0604502D14FF0020C32E0DFF8F0C061
:10058000604502D14FF0030C2BE0DFF8E8C0604576
:1005900002D14FF0040C24E0DFF8DCC0604502D14A
:1005A0004FF0050C1DE0DFF8D4C0604502D14FF0DC
:1005B000060C16E0DFF8C8C0604502D14FF0070C0A
:1005C0000FE0DFF8C0C0604502D14FF0080C08E032
:1005D000DFF8B4C0604502D14FF0090C01E04FF0E4
:1005E0000A0C0CFA07FCA44513D12C689C432C6020
:1005F0006F684FF0B0449F436F6067689F436760C8
:1006000027689F432760D6F8084424EA0E04C6F8FA
:10061000084407680323D4084FEA42084FEA427CA3
:1006200003FA08F34FEADC6C1F4307600BFA0CF681
:1006300000EB8404276A00E00BE0B7432762C4683C
:100640009C43C460446824EA0904446084689C4371
:100650008460521C31FA02F37FF46AAFBDE8F08F78
:100660008000005800000258000402580008025898
:10067000000C0258001002580014025800180258CA
:10068000001C025800200258002402582DE9F84F9F
:1006900003247D4D00234FF001094FF0B04B4FF084
:1006A0000F0AE9E009FA03F73A4076D00E7906F02E
:1006B0000306012E01D0022E18D1D0F808C04FEA4F
:1006C000430ECE6804FA0EF82CEA080C06FA0EF671
:1006D00046EA0C068660D0F804C00E792CEA070CB6
:1006E000C6F300169E4046EA0C0646600E79F643B5
:1006F000B6070BD0C6684FEA43088F6804FA08FCB7
:1007000026EA0C0607FA08F73743C7600E7906F0A9
:100710000306022E12D1DE080F694FEA437C00EB7C
:100720008606B646366A4FEADC6C0AFA0CF807FA17
:100730000CF726EA08063743CEF820700F790668D2
:100740004FEA430807F0030704FA08FC07FA08F722
:1007500026EA0C06374307604E6816F4403F1CD06B
:100760004A4E376847F00207376036689F0706F041
:100770000206009623F0030606F1B046B6463F0F88
:10078000D6F80864DFF808810AFA07FC404526EA33
:100790000C0603D14FF0000C41E06CE0DFF8F4C030
:1007A000604502D14FF0010C39E0DFF8ECC0604544
:1007B00002D14FF0020C32E0DFF8E0C0604502D118
:1007C0004FF0030C2BE0DFF8D8C0604502D14FF0AA
:1007D000040C24E0DFF8CCC0604502D14FF0050CDA
:1007E0001DE0DFF8C4C0604502D14FF0060C16E0F2
:1007F000DFF8B8C0604502D14FF0070C0FE0DFF81A
:10080000B0C0604502D14FF0080C08E0DFF8A4C08A
:10081000604502D14FF0090C01E04FF00A0C0CFAD0
:1008200007FC4CEA060CCEF808C44F68DBF8006001
:10083000FF0226EA020600D516435F46CBF80060A9
:10084000D1F804C0DBF804605FEA8C2C26EA0206CB
:1008500000D516437E606E684F6826EA0206BF0325
:1008600000D516436E602E684F6826EA0206FF0325
:1008700000D516432E605B1C0A6832FA03F67FF43B
:1008800011AFBDE8F88F000080000058F444025812
:10089000000002580004025800080258000C0258D8
:1008A000001002580014025800180258001C025888
:1008B0000020025800240258426921EA02030A403B
:1008C00043EA02418161704701480068000C7047AB
:1008D0000010005C014880687047000000000020A4
:1008E000024881680278114481607047000000204E
:1008F000032010B500F0AAF801F0D4FB0F4A10490C
:1009000014681368C4F3032203F00F038A5CC95C04
:1009100002F01F0201F01F01D0400A4A20FA01F143
:10092000116009490860002000F010F808B10120AA
:1009300010BD00F03FF8002010BD00001844025820
:1009400068370008100000200C00002070B50D4D25
:1009500004462878A0B14FF47A71B1FBF0F00A494F
:100960000968B1FBF0F001F00AFF48B9102C07D27A
:1009700000222146501E00F049F800206C6070BD36
:10098000012070BD000000200C00002028B190F86C
:100990003D10022903D08021816601207047042187
:1009A00080F83D100068C16821F00101C16000209D
:1009B00070470000054808B5016841F00201016078
:1009C000006800F00200009008BD0000F4440258E6
:1009D00000280DDB410900F01F028900012001F110
:1009E000E0219040C1F88001BFF34F8FBFF36F8FBC
:1009F0007047002809DB410900F01F02890001202F
:100A000001F1E0219040C1F8000170470E4BF0B4B5
:100A10001B680D46C3F30223C3F10706042E00D959
:100A20000426191D072901D2002300E0DB1E012442
:100A300004FA06F19C40491E2940641E9940144066
:100A40002143F0BC02F04BBE0CED00E0064900F083
:100A5000070210B54FF6FF040868044B204040EA37
:100A600002201843086010BD0CED00E00000FA05FC
:100A7000134970B50A68D243520705D5096801F0D9
:100A80000701814213D118E00A6822F007020243ED
:100A90000A60FFF71FFF0A4D4FF47A760446083DBF
:100AA00007E000BFFFF716FF001BB04201D901208D
:100AB00070BD2868C0438004F4D4002070BD0000DD
:100AC0000C4802587047704710B504000CD02068DD
:100AD000016821F001010160204600F097F9002033
:100AE000606484F8410010BD012010BD704770475C
:100AF00070B50446006882680168530734D54B031B
:100B000032D594F84110203012290FD094F84110BA
:100B100022291BD01EE0E16A01B3616A09780170E5
:100B2000616A491C6162E16A491EE1622168896863
:100B30004907F0D40EE0A16B81B10178226B1170EE
:100B4000216B491C2163A16B491EA163216889683F
:100B50004907F0D42046FFF7CAFF70BD206801683E
:100B600021F480210160F5E793074FF001056CD572
:100B70008B036AD50221C1602068016821F4E0215D
:100B8000016094F84100122815D094F84100222801
:100B900025D094F84100022849D094F84100082853
:100BA000DBD12068416921F04061416184F8415006
:100BB000606CD8B345E020680168490709D5016831
:100BC00021F004010160E06B0068C16821F00101BF
:100BD000C16084F84150204600F0C1F970BD206822
:100BE000016849070AD5016821F004010160E06B42
:100BF0000068C16821F00101C16011E020300AE005
:100C0000A16B69B10178226B1170216B491C2163C2
:100C1000A16B491EA1632168896811F47C5FEFD143
:100C200084F84150204600F097F970BD05E084F843
:100C300041502046FFF747FFF7E72046FFF742FF06
:100C4000F3E72046FFF752FFEFE7130711D50B0339
:100C50000FD50821C16020680168490205D50168E7
:100C600021F41021016084F84150204600F075F90C
:100C7000DBE7D30722D0CB0320D5C560206801680D
:100C800021F470210160606C40F002006064206813
:100C9000016849070FD5016821F004010160E16B8B
:100CA0000B488865E06BFFF771FE0028BDD0606CD3
:100CB00040F00400606484F84150C2E7D206B4D525
:100CC000C902B2D51021C160204600F047F9ACE757
:100CD000092C0008F8B50446FFF7FCFD05461CB1D9
:100CE00094F8410010B107E00120F8BD204600F063
:100CF000AFF841F28830A06420686FF0FF02A1686D
:100D0000036802EB012223F4F85111430160A06C47
:100D1000002220212B460090204601F092FF00285F
:100D2000E3D12268D4E907352679E168176845EAF6
:100D30000665DFF844C01943104B294300250126FE
:100D400007EA0C07394311602268D4E90517B4F8A3
:100D500010C0D2F804E039430EEA030E4EEA0C4309
:100D60001943516021680A6842F001020A60656413
:100D700084F84160F8BD00002FFFFF00FEF8E0FF9F
:100D80002DE9F843164688460446FFF7A3FD0346BF
:100D900094F8400001280ED0012084F8400000277C
:100DA00094F84100012808D05FF0020584F84070F3
:100DB0002846BDE8F8830220FBE7A06C8221676427
:100DC00084F84110002220210090204601F039FFD4
:100DD0000500EBD120687268016821F00801114319
:100DE0000160706808280AD12268102130681063F9
:100DF0002068C1602068016841F4801101604FF0F3
:100E000040624146204601F02BFECFE710B5006856
:100E10000B49884212D10B48016821F480410160DE
:100E200009484421FFF77AFB08484FF47071FFF737
:100E300075FBBDE810405C20FFF7CABD10BD000087
:100E400000500052D44402580004025800140258C2
:100E50002DE9F043B7B00446142130A8FFF772FA29
:100E6000C0216846FFF76EFA37492068884267D18B
:100E7000002013904FF000710446CDE90010684641
:100E800000F0C4F908B1FFF735FB3048016841F4C0
:100E900080410160006800F4804035902B480C30A0
:100EA000016841F020010160016801F020013591E5
:100EB000016841F002010160016801F00201359111
:100EC000016841F004010160006802250326DFF893
:100ED000809000F004004FF009080421CDE930159E
:100EE000CDE93480CDE9324630A94846FFF7CEFB44
:100EF000402032AACDE930050A27484682E8D000D2
:100F000030A9FFF7C3FB32AA300230A982E8D00033
:100F1000104FCDE930053846FFF7B8FBC021384601
:100F200032AACDE9301530A982E85001FFF7AEFBB7
:100F300000225C201146FFF769FD5C20FFF759FD98
:100F400037B0BDE8F083000000500052D44402588E
:100F500000040258001402587047704770477047E9
:100F600010B501F059F805490968054AC1F30211A5
:100F7000515C01F01F01C84010BD00002044025820
:100F800068370008494930B5484C0B1D0A681434CD
:100F900009681D68246802F00303C5F30012C1F359
:100FA0000531C4F3CC04002914FB02F200EE102A30
:100FB000F8EE400A75D03F4A9FED3D1AB7EE000AA1
:100FC0006BB1DFED3D1A012B01D0022B64D002EE94
:100FD000101A1168F8EE422A81EEA22A21E0334C61
:100FE000283C23689B0612D5344B246801EE901AE6
:100FF0001168C4F3C104F8EE612AE34001EE903AAF
:10100000C1F30801F8EE611A81EEA22A0BE001EEAD
:10101000901ADFED2B2A00BFF8EE611A116882EEFC
:10102000A12AC1F3080101EE901A1168F8EE611AC5
:1010300040EE811A71EE800A62EE200AC1F3462169
:1010400001EE101AB8EE411A31EE001AC0EE811A04
:10105000BCEEE11A80ED001A1168C1F3064101EE01
:10106000101AB8EE411A31EE001AC0EE811ABCEE29
:10107000E11A80ED011A1168C1F3066101EE101A40
:10108000B8EE411A31EE000A80EE801ABCEEC10AB9
:1010900080ED020A30BD04E001EE901ADFED092A6E
:1010A000BAE70021016041608160F3E728440258FB
:1010B00000000039384402580024744A0090D003DC
:1010C0000024744C20BCBE4B494930B5484C0B1D24
:1010D0000A681C3409681D68246802F00303C5F31C
:1010E0000022C1F30551C4F3CC04002914FB02F221
:1010F00000EE102AF8EE400A75D03F4A9FED3D1AE7
:10110000B7EE000A6BB1DFED3D1A012B01D0022BC7
:1011100064D002EE101A1168F8EE422A81EEA22A7B
:1011200021E0334C283C23689B0612D5344B2468BD
:1011300001EE901A1168C4F3C104F8EE612AE3408D
:1011400001EE903AC1F30801F8EE611A81EEA22A8D
:101150000BE001EE901ADFED2B2A00BFF8EE611ACA
:10116000116882EEA12AC1F3080101EE901A1168FC
:10117000F8EE611A40EE811A71EE800A62EE200AE2
:10118000C1F3462101EE101AB8EE411A31EE001AF1
:10119000C0EE811ABCEEE11A80ED001A1168C1F3AD
:1011A000064101EE101AB8EE411A31EE001AC0EEF7
:1011B000811ABCEEE11A80ED011A1168C1F30661D3
:1011C00001EE101AB8EE411A31EE000A80EE801AD4
:1011D000BCEEC10A80ED020A30BD04E001EE901AB7
:1011E000DFED092ABAE70021016041608160F3E781
:1011F0002844025800000039404402580024744A30
:101200000090D0030024744C20BCBE4B2DE9FE4F4F
:101210000546DFF8E48350F8081B0024F64FC94365
:10122000019005F12800264608F1240800900801E5
:101230001DD4A86E50B1B0F5801F0CD0B0F5001FC2
:101240000ED0B0F5401F1ED001240FE0386840F4E6
:101250000030386017E00198022101F01DFD03E025
:101260000098022101F0A8FD04000CD02646288831
:10127000C043C00523D4A86D05281ED2DFE800F0C6
:101280000C11161B1B00AA6ED8F8001021F4401197
:101290001143C8F80010EAE7386840F400303860BD
:1012A00009E00198002101F0F7FC03E0009800211B
:1012B00001F082FD044674B100E00124264628882E
:1012C000C043800528D4E86D80281ED00CDC90B186
:1012D00040280ED114E0AA6DD8F8001021F00701C3
:1012E0001143C8F80010EAE7C02813D0B0F5807F9A
:1012F00010D001240FE0386840F40030386009E075
:101300000198002101F0C8FC03E00098002101F0E1
:1013100053FD04469CB126462888DFF8DC92C04382
:1013200009F12C0940052CD4D5F8A800B0F5800FA0
:1013300020D00DDCA0B1B0F5001F0FD115E0EA6D93
:10134000D8F8001021F4E0711143C8F80010E3E769
:10135000B0F5C00F13D0B0F5000F10D001240FE08E
:10136000386840F40030386009E00198002101F04D
:1013700093FC03E00098002101F01EFD04467CB1BF
:1013800026462888C04300052DD4D5F8AC00B0F11E
:10139000007F21D00EDCA8B1B0F1807F10D116E023
:1013A000D5F8A820D9F8001021F460011143C9F83C
:1013B0000010E6E7B0F1407F13D0B0F1806F10D09D
:1013C00001240FE0386840F40030386009E00198EB
:1013D000002101F061FC03E00098002101F0ECFC29
:1013E000044674B126462868C04380011FD4E86CC7
:1013F000D8B110280FD0202812D0302815D00124C1
:1014000014E0D5F8AC20D9F8001021F0E0611143C8
:10141000C9F80010E7E7386840F40030386004E0AD
:101420000198022101F038FC044674B12646288850
:10143000C043C0042BD4286EB0F5005F20D00DDC73
:10144000A0B1B0F5805F0FD115E06B48EA6C203099
:10145000016821F0300111430160E8E7B0F5405F19
:1014600013D0B0F5804F10D001240FE0386840F45D
:101470000030386009E00198002101F00DFC03E024
:101480000098002101F098FC04468CB1264628887B
:10149000C043800429D4686EB0F5403F23D010DCEF
:1014A00008B3B0F5803F14D0B0F5003F0FD115E080
:1014B0002A6ED8F8001021F4E0411143C8F800105A
:1014C000E5E7B0F5802F0ED0B0F5A02F0BD00124AA
:1014D0000AE00198012101F0DFFB03E000980121FF
:1014E00001F06AFC044694B126462888C0434004B3
:1014F0002AD4D5F8B000B0F1405F23D010DC08B397
:10150000B0F1805F14D0B0F1005F0FD115E06A6ECA
:10151000D8F8001021F4E0211143C8F80010E4E7E6
:10152000B0F1804F0ED0B0F1A04F0BD001240AE0F3
:101530000198012101F0B0FB03E00098012101F0C6
:101540003BFC044674B126462888C04300041FD4DF
:10155000286FD8B1B0F1805F0ED0B0F1005F10D02D
:10156000012414E0D5F8B020D9F8001021F0E041B2
:101570001143C9F80010E7E7386840F400303860DC
:1015800004E00198012101F087FB044674B126466E
:101590002868C043C0011ED4A86CD0B101280ED069
:1015A000022811D0032814D0012413E02A6FD8F8A0
:1015B000001021F040511143C8F80010E8E73868E6
:1015C00040F40030386004E00198022101F064FB2F
:1015D0000446ACB126462868DFF81CB0C043ABF126
:1015E0001C0B400252D40548016841F4807101602F
:1015F000FFF770F9824611E02C4402580048025867
:10160000FA48AA6C016821F0030111430160E2E786
:10161000FFF760F9A0EB0A00642835D8F4480068A9
:10162000C005F5D58CBBDFF8C4A3B5F8B4100AF13A
:10163000240ADAF8000001F4407100F44070884296
:1016400011D0DAF80010DAF8002021F4407142F4E9
:101650008032CAF80020DAF8002022F48032CAF87A
:101660000020CAF80010D5F8B400B0F5807F1AD178
:10167000FFF730F9029012E0FFF72CF90299411AB6
:1016800041F2883081420AD9032426462878DFF8BF
:101690005CA3C0430AF1080AC00721D03CE0DAF895
:1016A00000008007E8D5D5F8B410C1F30120032865
:1016B00058460DD0016821F47C510160B5F8B42082
:1016C000DAF80010C2F30B021143CAF80010DDE78C
:1016D000C84A036802EA111223F47C511143ECE773
:1016E000E86F182816D005DCA0B1082808D010280B
:1016F00004D10AE020280DD028280BD001240AE0CC
:101700000198012101F0C8FA03E00098012101F0DD
:1017100053FB044664B126462878C04380071ED494
:10172000A86F062819D2DFE800F0160C111616165D
:10173000EA6FDAF8001021F038011143CAF80010FE
:10174000EAE70198012101F0A7FA03E000980121DE
:1017500001F032FB04467CB100E0012426462878E3
:10176000C04340071FD4D5F89400062819D2DFE8FB
:1017700000F0160C11161616AA6FDAF8001021F0F8
:1017800007011143CAF80010E9E70198012101F0AF
:1017900083FA03E00098012101F00EFB0446A4B196
:1017A00000E0012426462878C04380062BD4D5F8D3
:1017B0009000B0F1405F24D011DC10B3B0F1805F35
:1017C00015D0B0F1005F10D116E0D5F89420D9F80B
:1017D000001021F007011143C9F80010E3E7B0F150
:1017E000804F0ED0B0F1A04F0BD001240AE0019839
:1017F000002101F051FA03E00098022101F0DCFA27
:10180000044694B126462878C04340062BD4D5F828
:101810009C00B0F5406F24D011DC10B3B0F5806FA0
:1018200015D0B0F5006F10D116E0D5F89020DAF899
:10183000001021F0E0411143CAF80010E3E7B0F5D1
:10184000805F0ED0B0F5A05F0BD001240AE00198B4
:10185000002101F021FA03E00098022101F0ACFA26
:10186000044694B126462878C04300062BD4D5F808
:10187000A000B0F5C04F24D011DC10B3B0F5005F6C
:1018800015D0B0F5804F10D116E0D5F89C20D9F8CE
:10189000001021F4E0511143C9F80010E3E7B0F55E
:1018A000004F0ED0B0F5204F0BD001240AE0019874
:1018B000002101F0F1F903E00098022101F07CFA27
:1018C000044654B126462878C04300071ED4D5F8F4
:1018D0008400B0F5805F0AD00FE0D5F8A020D9F8D9
:1018E000001021F460411143C9F80010EBE70098A3
:1018F000022101F061FA00B10126D5F88420DAF85E
:10190000001021F440511143CAF800102878C04358
:10191000C00613D4D5F89800B0F5807F05D10098A3
:10192000022101F049FA00B10126D5F89820D9F832
:10193000001021F440711143C9F800102868C04319
:10194000000316D4D5F8A40038B1B0F5803F09D013
:10195000B0F5003F0BD001240AE00198002101F00E
:101960009BF903E00098022101F026FA04468CB1AD
:1019700026462868C043400322D4D5F88800B0F535
:10198000801F11D0B0F5001F13D0B0F5401F15D047
:10199000012414E0D5F8A420D9F8001021F4403136
:1019A0001143C9F80010E4E7386840F400303860AB
:1019B00004E00098012101F0FFF904465CB12646DD
:1019C0002868C043C00323D4286DA8B1B0F5803F78
:1019D00017D001241BE0D5F88820DAF8001021F494
:1019E00040111143CAF80010EAE700004C440258C5
:1019F00000480258CFFFFF00386840F400303860DC
:101A000004E00198022101F047F90446E4B12646BA
:101A10002868C043800005D40098022101F0CCF969
:101A200000B101262868C04380031BD4D5F880008C
:101A3000B0B1B0F5807F0FD0B0F5007F10D0B0F519
:101A4000407F0DD001240CE05A482A6D016821F432
:101A5000803111430160DBE7386840F400303860C2
:101A6000ECB326462868C043C00207D46A6FD8F892
:101A7000001021F000411143C8F800102868C0434D
:101A8000C00008D4D5F8B820DBF8001021F480415C
:101A90001143CBF800102868C043800207D4EA6ED7
:101AA000D8F8001021F080711143C8F800102868A0
:101AB000C04340000CD4DBF8001021F40041CBF807
:101AC0000010DBF80010D5F8BC201143CBF8001053
:101AD0002868C04308D437486A6D016800E018E000
:101AE00021F04051114301602868C043000208D42E
:101AF000D5F88C20DAF8001021F440011143CAF81F
:101B0000001028790024C04300F0010020430AD0CF
:101B10000FE0D5F88020DAF8001021F4407111436D
:101B2000CAF800109EE70198002101F0B5F800B155
:101B300006462879C04300F00200204305D10198F1
:101B4000012101F0A9F800B106462879C04300F050
:101B50000400204305D10198022101F09DF800B155
:101B600006462879C04300F00800204305D10098BC
:101B7000002101F021F900B106462879C04300F0A8
:101B80001000204305D10098012101F015F900B1A2
:101B900006462879C04300F02000044304D1009891
:101BA000022101F009F900B916B10120BDE8FE8F4C
:101BB0000020FBE74C440258704700002DE9F05F1D
:101BC00004000F467ED0DFF83882D8F8000000F01D
:101BD0000F00B8420CD2D8F8001021F00F013943A1
:101BE000C8F80010D8F8000000F00F00B84269D122
:101BF0002078844D40070AD52069296801F07001DA
:101C0000884204D9296821F07001014329602078B5
:101C10007C4E361D00070AD56069316801F07001FD
:101C2000884204D9316821F0700101433160207885
:101C3000C0060AD5A069316801F4E061884204D980
:101C4000316821F4E061014331602078DFF8B4B1FC
:101C500080060BF1080B0CD5E1695846DBF8002033
:101C600002F07002914204D9026822F070020A4325
:101C70000260207880070AD5E068296801F00F012A
:101C8000884204D9296821F00F0101432960207896
:101C9000C0073ED05B49A2682868183920F47060FC
:101CA000104328606068022818D0032819D00968FA
:101CB000012819D0490700294ADADFF848A1AAF11A
:101CC000080A00E044E0DAF8002022F007020243AC
:101CD000CAF80020FEF7FEFD814612E0096889037C
:101CE000E9E709688901E6E7C905E4E7FEF7F2FDDF
:101CF000A0EB090141F28830814202D90320BDE8FE
:101D0000F09F6168DAF8000000F03800B0EBC10F16
:101D1000ECD1207880070AD5E068296801F00F012E
:101D2000884204D2296821F00F0101432960D8F8C4
:101D30000010404601F00F01B9420BD9016821F0B3
:101D40000F0139430160006800F00F00B84201D074
:101D50000120D4E7207840070AD52069296801F0DE
:101D60007001884204D2296821F070010143296082
:101D7000207800070AD56069316801F07001884257
:101D800004D2316821F07001014331602078C0062F
:101D90000AD5A069316801F4E061884204D2316853
:101DA00021F4E06101433160207880060CD5E169BF
:101DB0005846DBF8002002F07002914204D202681B
:101DC00022F070020A43026000F06CF90E492A68A2
:101DD0002B68C2F3032203F00F038A5CC95C02F094
:101DE0001F0201F01F01D040084A20FA01F11160E2
:101DF0000749086007480068BDE8F05FFEF7A6BD28
:101E000000200052184402586837000810000020D3
:101E10000C000020040000202DE9F047704C2068E1
:101E200000F00F00072809D2206820F00F00C01D25
:101E30002060206800F00F0007287CD1FEF74AFDE3
:101E4000DFF8A0810546D8F8000040F00100C8F88E
:101E5000000004E0FEF73EFD401B022875D8D8F8CC
:101E600000004007F6D55F4800275E4E001D103683
:101E700003685D4943F08043036037605B4801605D
:101E80005B4801605B480068FEF760FD002852D1A6
:101E9000FEF720FD054641F2883904E0FEF71AFD01
:101EA000411B494551D8306810F0380FF6D1FEF784
:101EB00011FD51490546D8F800000840C8F8000057
:101EC00005E000BFFEF706FD401B64283DD8D8F8AA
:101ED00000008003F6D4FEF7FDFC0546D8F80000AC
:101EE00020F08070C8F8000005E000BFFEF7F2FCAB
:101EF000401B022829D8D8F800008001F6D4FEF74C
:101F0000E9FC0546D8F8000020F08060C8F8000021
:101F100005E000BFFEF7DEFC401B022815D8D8F80C
:101F200000000001F6D4FEF7D5FC0546D8F8000005
:101F300020F0805001E04EE007E0C8F8000007E024
:101F4000FEF7C8FC401B022802D90320BDE8F08739
:101F5000D8F800008000F3D4224D384627491835C0
:101F6000274B2E1D321D2F601E4F264D2837306007
:101F70003E1D1060321D3B60131D35601D1D11603C
:101F80002A1D161D1860331D29601060316018600D
:101F9000D8F800304FF0FF351249124A23F480235D
:101FA000104ED0316032C8F80030683610603560AD
:101FB000086840F480300860206800F00F000728AF
:101FC0000BD9206820F00F00C01D2060206800F0B1
:101FD0000F00072801D00120B8E70020B6E7000075
:101FE00000200052004402580090D0030C00002052
:101FF000100000200400002045EDF6FF80020101E2
:10200000000202020000FF010248016841F40021C1
:10201000016070470044025830B500F043F80B4AA5
:102020000B490C4B15681468C5F3032204F00F0428
:102030008A5C095D02F01F0201F01F01D040064AD0
:1020400020FA01F119601060084630BD18440258AA
:1020500068370008100000200C00002000B5FFF7D2
:10206000DBFF05490968054AC1F30211515C01F023
:102070001F01C84000BD00001C440258683700081A
:1020800000B5FFF7C9FF05490968054AC1F30221F8
:10209000515C01F01F01C84000BD00001C44025803
:1020A00068370008454970B545480968434B103BFF
:1020B00011F0380208D00111082A03D0102A0BD0E1
:1020C000182A0BD0084670BD19688906FBD5196817
:1020D000C1F3C101C84070BD3A4870BD3749374DA2
:1020E00018310C1D24350A68096826682D6802F02D
:1020F000030406F00102C1F30511C5F3CC0515FB7D
:1021000002F200EE102AB8EE400AE9B32F4ADFEDE2
:102110002E0AB7EE001A6CB1DFED2D1A012C01D09A
:10212000022C43D002EE101A1068F8EE422A81EE1B
:10213000A22A1EE01C68A40611D51B6801EE901AA5
:102140001168C3F3C103F8EE612AD84001EE900A8A
:10215000C1F30800F8EE611A81EEA22A0BE001EE4D
:10216000901ADFED1C2A00BFF8EE611A106882EEAB
:10217000A12AC0F3080001EE900AF8EE611A40EEC1
:10218000201A31EE810A00E015E022EE000A106804
:10219000C0F34620401C00EE900AF8EE600A80EE84
:1021A000201ABCEEC10A10EE100A70BD01EE901AA2
:1021B000DFED092AD8E7002070BD00001044025866
:1021C0000090D00340787D0100000039304402586F
:1021D0000024744A0024744C20BCBE4B064810B541
:1021E0000068400506D5FFF7E7FC03494FF480601F
:1021F000091D086010BD0000644402582DE9F05F1D
:1022000004007DD0FF4F2078FE4D1837DFF8F4939F
:10221000103DC00748D0D9F80000396800F03800F8
:10222000102815D0182803D101F0030002280FD080
:102230006068B0F5803F12D010B1B0F5A02F18D073
:10224000286820F480302860286820F4802009E085
:102250002868800328D560680028D2D024E0286848
:1022600040F480302860606888B1FEF733FB064692
:1022700009E0286840F480202860F0E7FEF72AFB98
:10228000801B64286FD828688003F7D50CE0FEF720
:1022900021FB064605E000BFFEF71CFB801B6428FF
:1022A000F0D828688003F7D4207841F20308D54E8F
:1022B0000C3E800769D5D9F80000396810F0380065
:1022C0000ED0182801D188070AD0E06890B3296899
:1022D00021F0190101432960FEF7FCFA824631E042
:1022E0002868400702D5E06800288AD0E16828689D
:1022F00020F0190008432860FEF7ECFA824607E058
:10230000DFE000BFFEF7E6FAA0EB0A000228B9D82A
:1023100028684007F6D500BFFEF7D6FA40451BD81F
:102320002069402812D0316821F47C3141EA003024
:1023300030602AE018E000BFFEF7CCFAA0EB0A00FC
:1023400002289FD828684007F6D5E5E7306820F4D2
:102350007C3040F40030EBE7207C316821F0FE4116
:1023600041EA0060E4E70DE1286820F00100286000
:10237000FEF7B0FA824605E0FEF7ACFAA0EB0A00E1
:1023800002288DD828684007F6D42078C0065DD58D
:10239000D9F80000DFF86CB2396800F03800ABF112
:1023A000040B082810D0182803D101F003000128DD
:1023B0000AD0E0690028286838D040F08000286002
:1023C000FEF788FA824623E02868C00523D5E06935
:1023D000802876D11FE0206A202821D0316821F0A2
:1023E000F84141EA8060306030E000BF94F820108E
:1023F000DBF8002022F07C5242EA0161CBF80010A9
:1024000024E000BFFEF766FAA0EB0A00022898D885
:102410002868C005F6D5FEF757FA4045E6D8DAE752
:10242000306820F0F84040F08040DCE720F0800089
:102430002860FEF74FFA064605E000BFFEF74AFAAD
:10244000801B02289DD82868C005F7D42078000793
:1024500029D56C486169643000298046016811D033
:1024600041F001010160FEF735FA064605E000BFC4
:10247000FEF730FA801B0228C9D8D8F80000800780
:10248000F6D510E021F001010160FEF723FA0646BF
:1024900005E000BFFEF71EFA801B022872D8D8F8AC
:1024A00000008007F6D42078800623D5A069002894
:1024B000286810D040F480502860FEF70BFA0646DA
:1024C00005E036E1FEF706FA801B02285AD8286894
:1024D0008004F7D50EE020F480502860FEF7FAF96A
:1024E000064604E0FEF7F6F9801B02284AD8286861
:1024F0008004F7D4207840074FD5DFF80C81D8F856
:10250000001041F48071C8F80010FEF7E3F90646A8
:1025100005E000BFFEF7DEF9801B642832D8D8F84A
:102520000000C005F6D5374EA068603601280AD0F5
:1025300008B1052813D0306820F001003060306801
:1025400020F0040002E0306840F001003060A06834
:1025500041F2883A90B1FEF7BDF980460AE0306852
:1025600040F004003060EEE7FEF7B4F9A0EB08019C
:10257000514507D830688007F6D50EE0FEF7AAF976
:10258000804607E084E000BFFEF7A4F9A0EB080155
:1025900051457DD830688007F6D4606AB0B3DFF863
:1025A0006480D9F8001008F120084FF6F87B08F194
:1025B0000409C1F3C2010329A8F1040A69D0022861
:1025C000286820F08070286003D0FEF783F9044665
:1025D00084E0FEF77FF9064605E000BFFEF77AF9D2
:1025E000801B022877D828688001F7D4E26A40F27D
:1025F000F331386854F8283F884340EA0210184302
:10260000386004E01044025800480258B5E0217BCD
:10261000434622894FF4FE0C208A4FF0FE474902C0
:10262000267D521E401EA1F50071C2F308088AB231
:10263000761E0CEA004042EA08020243504607EACE
:1026400006610A431A60DAF8002022F00102CAF893
:102650000020D9F80020266A22EA0B0242EAC602CC
:10266000C9F80020DAF80010A26921F00C0111432A
:10267000CAF800100168E26921F00201114301600B
:10268000016841F480310160016841F4003101E0EA
:1026900021E027E00160016841F4802101600168C8
:1026A00041F001010160286840F080702860FEF769
:1026B00011F9044605E000BFFEF70CF9001B0228E3
:1026C00009D828688001F7D557E000BFFEF702F966
:1026D000001B022802D90320BDE8F09F2868800172
:1026E000F4D44AE039680128D8F8000021D0A26A61
:1026F00001F0030393421CD1E26AC1F305118A423F
:1027000017D1216BC0F30802491E8A4211D1616BB7
:10271000C0F34622491E91420BD1A16BC0F3064281
:10272000491E914205D1E16BC0F30660491E81420A
:1027300001D00120D0E7A16C4E46D9F80000C0F3CB
:10274000CC00814219D0DAF80000554620F0010093
:10275000CAF80000FEF7BEF84FEA0007FEF7BAF825
:10276000B842FBD0A26C306820EA0B0040EAC200FD
:102770003060286840F0010028600020ACE7401E6F
:10278000B0F1807F10B501D3012010BD4FF0E024DF
:1027900060610F21601700F0A2FF0020A0610721F7
:1027A000216110BD30B590F88410012918D00122A4
:1027B00080F884202421C0F8881000222024016899
:1027C0000B680D6823F0005325F001050D6042668B
:1027D00001680B60C0F8884080F88420104630BD46
:1027E000022030BD70B5044690F8840001281DD049
:1027F000012284F884202420C4F888002068056819
:10280000026822F0010202602068826822F06062A1
:102810000A438260204600F03FFC2268202100200D
:102820001560C4F8881084F8840070BD022070BD63
:1028300070B5044690F8840001281DD0012284F868
:1028400084202420C4F8880020680568026822F0EB
:10285000010202602068826822F060420A438260BE
:10286000204600F019FC2268202100201560C4F8E1
:10287000881084F8840070BD022070BD10B504007B
:1028800003D0D4F8880010B107E0012010BD00206B
:1028900084F88400204600F027F82420C4F888003B
:1028A0002068016821F001010160204600F0FAFC77
:1028B0000128EBD0A06A10B1204600F00FFC206880
:1028C000416821F4904141602068816821F02A012B
:1028D00081602068016841F0010101602046BDE887
:1028E000104000F05FBC000010B5B6B004461421E3
:1028F00030A8FDF727FDC0216846FDF723FD1949E3
:10290000206888422BD100201F9001210446CDE988
:1029100000106846FEF77AFC08B1FDF7EBFD12489F
:10292000016841F010010160006800F0100035906E
:102930000D481038016841F001010160006830ABBA
:10294000022100F0010035904FF4C060072283E8B7
:102950001300064830A9CDE93342FDF797FE36B0A3
:1029600010BD000000100140F04402580000025861
:10297000FEE7000000B587B014216846FDF7E2FCD1
:102980000A48016841F00401016000680321002247
:1029900000F0040005904FF400508DE80700044853
:1029A0006946FDF773FE07B000BD0000E044025821
:1029B000000802582DE9F0410C48002101230A4A81
:1029C00020241E02C0E90561C1611025192701629A
:1029D00080E8BC00FEF77EF9002803D0BDE8F04196
:1029E000FDF788BDBDE8F0810050005214000020C2
:1029F0001848002110B5164C0C224FF4E133046046
:102A0000C0E90131C160C0E904128161C1610162A4
:102A100041628162FFF732FF08B1FDF76BFD0D489F
:102A20000021FFF705FF08B1FDF764FD094800210B
:102A3000FFF7D8FE08B1FDF75DFD0648FFF7B2FECF
:102A4000002803D0BDE81040FDF754BD10BD0000C4
:102A50000010014060000020FEE7FFF7BFBB704799
:102A60002DE9F0434B6A4FF040652BB1AA4203D0E9
:102A700004688B6A5B1E23618B69002B68D00C6A2B
:102A8000B4B303688C68DC61CC69FCB1D1E90B3864
:102A9000D1F824C04E6B8F8A43EA080346EA0C063D
:102AA00033430E6A43EA8743D1E9037C43EA0C03CC
:102AB00033438E693B430F682343046833433B43EE
:102AC00065E0006849688161BDE8F083D1E90B36B3
:102AD0004F6A4C6B8D8A33433C430E6923430C6A27
:102AE00043EA85438D693343096823432B4362E0FE
:102AF000FFE7CC69B4F1000918D0D1E90B484F6A5F
:102B00004E6BB1F814C044EA08043E430F683443E6
:102B1000CE6844EA8C44344344EA09041C43036805
:102B20003C431443AA425C61CBD1CDE7D1E90B46CB
:102B30004F6A4D6BB1F814C034433D4300682C43D9
:102B4000096844EA8C441C430C4314434461BBE7CA
:102B50000B6AABB303688C68DC61CC69E4B1D1E982
:102B60000B38D1F824C04E6B8F8A43EA080346EA3B
:102B70000C0633430E6A43EA8743D1E9037C43EAF8
:102B80000C0333438E693B432343046833431343AD
:102B9000AA42636195D197E7D1E90B364F6A4C6B36
:102BA0008D8A33433C430E6923430C6A43EA8543D1
:102BB00089693343234300680B431343436183E72D
:102BC000FFE7CC6984B1D1E90B384F6A4E6BB1F89D
:102BD00014C043EA08033E433343CE6843EA8C43C0
:102BE000334323430468D2E74C6A002C9DD0D1E9DB
:102BF0000B368F8A4D6B0168334325432B4343EAE1
:102C00008740104348615FE710B5006C0021816385
:102C1000C16290F84110082905D0012180F84110C7
:102C2000FDF764FF10BD02680221D16001680A68E7
:102C300042F400320A600068016841F0020101605C
:102C400010BD2DE9F041984616460F460446069DF4
:102C500008E0681C06D0FDF73DFEA0EB0800A84286
:102C60000AD84DB120688068384000D00120B042B9
:102C7000EFD10020BDE8F081042084F84100606CB1
:102C800040F0010060640120F4E700000148FDF716
:102C90002FBF0000140000202DE9F047454D0446E9
:102CA00089464FF0000A2868C04380070AD0414E89
:102CB000283E306820F080603060FDF70BFE07464C
:102CC000B04608E00120BDE8F08700BFFDF702FE36
:102CD000C01B022867D8D8F800000001F6D420688D
:102CE00029684FF4FE0721F47C313E0241EA0030AE
:102CF0002860207AA389B4F804C040022D4D2D49E4
:102D00005B1E227CACF1010C1035091DA0F5007092
:102D100080B2521ECCF3080C07EA034340EA0C00D1
:102D2000184306EA0262104328600868626920F0CE
:102D3000C000104308600A68A06922F02002024324
:102D40000A60281D0A6822F010020A6002684FF625
:102D5000F873E4699A4342EAC40202600868B9F170
:102D6000000F40F010020A6011D00868B9F1010F9D
:102D700011D040F400100860D8F80000444640F03C
:102D80008060C8F80000FDF7A5FD05460DE0086865
:102D900040F40020EFE740F48010ECE7FDF79AFDE7
:102DA000401B022801D903208DE720680001F5D5DA
:102DB000504688E7284402582DE9F047454D04461F
:102DC00089464FF0000A2868C04380070AD0414E68
:102DD000283E306820F080503060FDF77BFD0746CC
:102DE000B04608E00120BDE8F08700BFFDF772FDA6
:102DF000C01B022867D8D8F800008000F6D42088CD
:102E000029684FF4FE0721F07C713E0241EA005030
:102E10002860207AA389B4F804C040022D4D2D49C2
:102E20005B1E227CACF1010C1835091DA0F5007069
:102E300080B2521ECCF3080C07EA034340EA0C00B0
:102E4000184306EA0262104328600868626920F4A9
:102E50004060104308600A68A06922F400720243CF
:102E60000A60281D0A6822F480720A6002684FF620
:102E7000F873E4699A4342EAC40202600868B9F14F
:102E8000000F40F480720A6011D00868B9F1010F98
:102E900011D040F080700860D8F80000444640F03F
:102EA0008050C8F80000FDF715FD05460DE00868E4
:102EB00040F48000EFE740F40000ECE7FDF70AFD86
:102EC000401B022801D903208DE720688000F5D53A
:102ED000504688E7284402587047FDF701BD0000BE
:102EE00070B59CB04C216846FDF72CFA202113A840
:102EF000FDF728FA0220FDF7BBFD2B4900242B48E3
:102F00000A6822F001020A600A68026842F440423C
:102F10000260026802F440421B9202689204FCD5EF
:102F2000234A136843F002031360126802F002029E
:102F30001B92026842F44042026002680A6842F052
:102F400001020A60096801F001011B91016889040E
:102F5000FCD50DF1280C022009900521C0228CE837
:102F60000700C3030F9008250D9001260E90CDE9B0
:102F70001054CDE9006368461294FFF73FF94020F2
:102F80001A903F210301CDE916500322CDE9180321
:102F900013AB13A883E816000421FEF70FFEFFF71A
:102FA00033F81CB070BD00002C04005818480258BB
:102FB000F44402582E48F0B52E4A016841F47001DD
:102FC0000160106800F00F00072804D2106820F09C
:102FD0000F00C01D106028490020274C10340B68DA
:102FE000264D43F001030B6020600B682B400B6003
:102FF000136803F00F03072B04D9136823F00F03A2
:10300000DB1D13601C4C1E4A18341E4B261D371D39
:103010002060194C1C4D28343060261D3860371D47
:1030200023603B1D35601C1D3A60251D2E1D186058
:10303000331D22602860326018600A680E4B134C02
:1030400022F4802260330A60186020686FF30F005A
:10305000B0F1005F03D20E490120C1F8080143F22C
:10306000D2000C49024B4A03803B08601A60F0BD55
:1030700088ED00E000200052004402587FEDF6EA9F
:1030800080020101000202020000FF010010005C4A
:10309000008000510040005230B5416EB9B1016866
:1030A0000D4B03F108048A688968C2F34262490F34
:1030B0005D5C615C2D01B5FBF1F1A0F86A10995CD3
:1030C000A25C0901B1FBF2F1A0F8681030BD01214A
:1030D000A0F86A10F8E700005837000890F82810A8
:1030E000C90706D00168C36A4A6822F400321A434D
:1030F0004A6090F82810890706D50168036B4A6872
:1031000022F480321A434A6090F82810490706D505
:103110000168436B4A6822F480221A434A6090F89F
:103120002810090706D50168836B4A6822F400421B
:103130001A434A6090F82810C90606D50168C36B87
:103140008A6822F480521A438A6090F8281089060F
:1031500006D50168036C8A6822F400521A438A601B
:1031600090F82810490611D50168436C4A6822F48A
:1031700080121A434A60416CB1F5801F06D1016884
:10318000836C4A6822F4C0021A434A6090F82810FF
:10319000090606D50168C26C486820F40020104377
:1031A000486070472DE9F84300250446C0F8905068
:1031B000FDF790FB8046206820266FF07E47006870
:1031C000000713D50022434631042046009700F043
:1031D0003FFA58B1216851E8000F20F0800041E823
:1031E0000002002AF6D1C4F8886021E02068006857
:1031F000400722D5002243464FF480012046009725
:1032000000F026FAC8B1206850E8001F21F4907140
:1032100040E80012002AF6D12068083050E8001F6C
:1032200021F0010140E80012002AF5D1C4F88C60B9
:10323000032084F88450BDE8F883C4F88860C4F89B
:103240008C60E5662567002084F88450F3E7000071
:1032500010B5026852E8001F21F4907142E8001393
:10326000002BF6D10E4B0268083252E8001F1940BD
:1032700042E80014002CF6D1C16E012908D1026881
:1032800052E8001F21F0100142E80013002BF6D194
:1032900000212022C0F88C20C166416710BD0000CB
:1032A000FEFFFFEF2DE9F04304468068D84E87B05B
:1032B000D84B2168D4E90427D4F81CC010430A680D
:1032C000002547EA0C073843324002430A60206871
:1032D000E268416821F44051114341602268A169CC
:1032E0009A4201D0206A01439768DFF82CC3CB4E85
:1032F000CB4807EA0C070F4397602168676ACA6AE0
:1033000022F00F023A43CA622268B2420ED100682C
:1033100000F03800182873D047DCB8B3082879D0FB
:1033200010286FD178E028287ED17BE0BD498A4201
:1033300009D1006800F00700062875D2DFE800F028
:10334000546A6C6E7072B8498A4209D1006800F004
:103350000700062868D2DFE800F0475D5F6163651B
:10336000B2498A4209D1006800F0070006285BD202
:10337000DFE800F03A5052545658AD498A420BD11A
:10338000006800F0070006284ED200E010E0DFE8F9
:1033900000F02B4143454749A6498A420AD10068BB
:1033A00000F03800182839D0B7DD2028BBD13CE028
:1033B00001203AE0A0498A4209D1006800F00700E4
:1033C000062831D2DFE800F01026282A2C2E9B494F
:1033D0008A420BD1006800F00700062824D2DFE8FB
:1033E00000F003191B1D1F2100201EE09A421BD173
:1033F0008B48001D006800F00700062814D202E088
:103400000CE007E010E0DFE800F0030507090B0D12
:1034100002200AE0042008E0082006E0102004E072
:10342000202002E0402000E080208549DFF814825F
:103430009A42854A4FF400434FEA21174FF00006A5
:103440004ED110281AD006DC022809D004280BD04F
:1034500008287CD10DE020283ED0402877D13DE0DF
:10346000FDF77EFD014610E06846FDF78BFD0199F2
:103470000BE003A8FDF728FE049906E0106880061B
:1034800005D51068C0F3C100C140002970D0606A42
:10349000676838F8102007EB4703B1FBF2F083426E
:1034A00055D8B0EB073F52D8002308461946FCF721
:1034B00011FF02467808130E120243EA0121101888
:1034C0003A4671410023FCF705FF604AA0F54071C0
:1034D00091423CD821688FE03946D8E71946D6E7B3
:1034E000D4F81CC04FF6EF799C4546D1082819D076
:1034F00005DC58B101280CD0042875D10DE0102846
:1035000015D0202835D040286ED134E0FEF7A6FD36
:1035100001E0FEF7B5FD014610E06846FDF732FD1B
:1035200001990BE003A8FDF7CFFD049906E01068B0
:10353000800604D51068C0F3C100C140C1B1636A00
:10354000606838F81330B1FBF3F1490000E04BE05C
:1035500001EB5001B1FBF0F0A0F11001494543D857
:103560004FF6F0732168C0F342021840104343E065
:1035700043E03946E3E71946E1E7082819D005DCBE
:1035800058B101280CD004282ED10DE0102815D0F8
:1035900020282BD0402827D12AE0FEF75FFD01E04C
:1035A000FEF76EFD014610E06846FDF7EBFC019961
:1035B0000BE003A8FDF788FD049906E0106880067B
:1035C00004D51068C0F3C100C140B1B1636A60683E
:1035D00038F81330B1FBF3F101EB5001B1FBF0F01F
:1035E000A0F11001494505D9012506E03946EDE76E
:1035F0001946EBE7216880B2C8600120A4F86A0090
:10360000A4F8680028466667A66707B0BDE8F0839F
:10361000F369FFCF000C0058FFF4FF1100100140C8
:10362000544402580044004000480040004C004010
:10363000005000400014014000780040007C004031
:103640000090D0034037000800440258FFFC0F00F0
:103650002DE9F047994617460E460446089D4FF05F
:1036600000082FE0681C2DD0FDF734F9A0EB09000D
:10367000A84214D89DB120680168490722D5C169C4
:10368000C94309070DD4082505622046FFF7E0FD70
:10369000C4F89050012084F88480BDE8F0870320AE
:1036A000FBE7C069C04300050CD421684FF40060FB
:1036B00008622046FFF7CCFD2021C4F8901084F862
:1036C0008480ECE72068C06936EA000004D000205E
:1036D000B842C7D00020E0E70120F9E7FEE709077C
:1036E00000284FEA116104DB00F1E02080F80014AB
:1036F000704700F00F0000F1E02080F8141D7047C3
:1037000002E008C8121F08C1002AFAD170477047AA
:10371000002001E001C1121F002AFBD17047FDF714
:10372000E7F8FFF7DDFBFCF749FEFFF723F9FFF7AA
:1037300041F9FFF75DF9FCF7AFFEFCF76FFEFEE71E
:10374000010002000400060008000A000C0010003E
:10375000200040008000000101010103070100007A
:103760000804020408010101000000000102030432
:10377000010203040607080998370008000000202A
:103780001400000000370008AC37000814000020C7
:10379000E4080000103700080100000010000000DD
:0C37A000000000000090D0030090D00357
:040000050800029954
:00000001FF
