:020000040800F2
:10000000000008244D0B0008590900085B0900088E
:100010005D0900085F090008610900080000000090
:10002000000000000000000000000000630900085C
:100030006509000800000000670900086909000858
:100040009D0B00089D0B00089D0B00089D0B0008F0
:100050009D0B00089D0B00089D0B00089D0B0008E0
:100060009D0B00089D0B00089D0B00089D0B0008D0
:100070009D0B00089D0B00089D0B00089D0B0008C0
:100080009D0B00089D0B00089D0B00089D0B0008B0
:100090009D0B00089D0B00089D0B00089D0B0008A0
:1000A0009D0B00089D0B00089D0B00089D0B000890
:1000B0009D0B00089D0B00089D0B00089D0B000880
:1000C0009D0B00089D0B00089D0B00089D0B000870
:1000D0009D0B00086D0900089D0B00089D0B000892
:1000E0009D0B00089D0B0008000000009D0B000800
:1000F0009D0B00089D0B00089D0B00089D0B000840
:10010000790900089D0B00089D0B00089D0B000855
:100110009D0B00089D0B00089D0B00089D0B00081F
:100120009D0B00089D0B00089D0B00089D0B00080F
:100130009D0B00089D0B00089D0B00089D0B0008FF
:1001400000000000000000000000000000000000AF
:100150009D0B00089D0B00089D0B00089D0B0008DF
:100160009D0B00089D0B00089D0B00089D0B0008CF
:100170009D0B00089D0B00089D0B0008000000006F
:100180009D0B00089D0B00089D0B00089D0B0008AF
:100190009D0B00089D0B00089D0B00089D0B00089F
:1001A0009D0B00089D0B00089D0B00089D0B00088F
:1001B0009D0B00089D0B00089D0B00089D0B00087F
:1001C0009D0B00089D0B00089D0B00089D0B00086F
:1001D0009D0B00089D0B00089D0B00089D0B00085F
:1001E0009D0B00089D0B00089D0B00089D0B00084F
:1001F0009D0B00089D0B00089D0B00089D0B00083F
:100200009D0B00089D0B00089D0B00089D0B00082E
:100210009D0B00089D0B00089D0B00089D0B00081E
:100220009D0B00089D0B00089D0B000800000000BE
:100230009D0B00089D0B0008000000009D0B0008AE
:100240009D0B00089D0B00089D0B00089D0B0008EE
:100250009D0B00089D0B00089D0B00089D0B0008DE
:100260009D0B00089D0B00089D0B00089D0B0008CE
:100270009D0B00089D0B00089D0B0008000000006E
:100280009D0B00089D0B00089D0B0008000000005E
:08029000000000009D0B0008B6
:1002980010B5054C237833B9044B13B10448AFF3B8
:1002A80000800123237010BD10000024000000000E
:1002B8009837000808B5034B1BB103490348AFF34F
:1002C800008008BD000000001400002498370008D2
:1002D80053B94AB9002908BF00281CBF4FF0FF31A5
:1002E8004FF0FF3000F06AB9ADF1080C6DE904CEAB
:1002F80000F006F8DDF804E0DDE9022304B07047F9
:100308002DE9F047089D0C46002B4ED194468C45AC
:100318008646B2FA82F262D94AB1C2F1200391400C
:1003280020FA03F30CFA02FC194300FA02FE4FEA22
:100338001C471FFA8CF6B1FBF7F44FEA1E4307FB84
:10034800141143EA014304FB06F199420AD91CEB54
:10035800030304F1FF3080F01281994240F20F81CB
:10036800023C6344591A1FFA8EF3B1FBF7F007FBFE
:10037800101143EA014300FB06F69E420AD91CEB22
:10038800030300F1FF3180F0FC809E4240F2F980C7
:10039800634402389B1B40EA044000211DB1D3404E
:1003A8000022C5E90032BDE8F0878B4205D90DB1BE
:1003B800C5E9000100210846F5E7B3FA83F10029F1
:1003C80046D1A34202D39042C0F0F080861A64EB73
:1003D80003030120002DE6D0C5E90063E3E7002A06
:1003E80040F09080A1EB0C044FEA1C481FFA8CF7F0
:1003F8000121B4FBF8F64FEA1E4308FB164443EA12
:10040800044307FB06F0984208D91CEB030306F1E6
:10041800FF3402D2984200F2CD8026461C1A1FFAF9
:100428008EF3B4FBF8F008FB104443EA044300FBE6
:1004380007F79F4208D91CEB030300F1FF3402D2EF
:100448009F4200F2B0802046DB1B40EA0640A5E749
:10045800C1F120068B4022FA06F71F4320FA06FC5A
:1004680004FA01F343EA0C03F44000FA01F8380CEB
:100478004FEA1349B4FBF0FE1FFA87FC00FB1E4449
:1004880049EA04440EFB0CF9A14502FA01F20AD923
:100498003C190EF1FF3A80F08480A14540F281803A
:1004A800AEF1020E3C44A4EB09041FFA83F9B4FB35
:1004B800F0F300FB134449EA044403FB0CFCA44595
:1004C80007D93C1903F1FF3067D2A44565D9023B2F
:1004D8003C4443EA0E40A0FB0293A4EB0C049C426C
:1004E800CE469C4651D34ED055B1B8EB0E0364EBC3
:1004F8000C0404FA06F6CB401E43CC40C5E9006460
:10050800002150E7C2F1200320FA03F10CFA02FCA3
:1005180024FA03F394400C434FEA1C4800FA02FE05
:100528001FFA8CF7B3FBF8F008FB1031230C43EAF1
:10053800014300FB07F1994208D91CEB030300F1C2
:10054800FF362CD299422AD9023863445B1AA4B2E6
:10055800B3FBF8F108FB113344EA034401FB07F34A
:10056800A34208D91CEB040401F1FF3613D2A342BD
:1005780011D902396444E41A41EA004139E70446D2
:10058800F0E6084606E7C845AED2B9EB020E63EBC3
:10059800070C0138A8E73146EDE7034699E73046EE
:1005A800D4E7D6467FE7634402384DE7064623463C
:1005B80008460FE7023E634430E700BF704700BFBC
:1005C80017480023174A01214FF0100C00B5C0E965
:1005D8000023082289B0C0E9021240220421C0E9A0
:1005E80004C24FF4C072C0E906234FF40062C0E9A8
:1005F80008234FF40053072283620223CDE9031234
:10060800CDE90132032269440793CDE9052302F0BD
:10061800D5FA08B100F088F909B05DF804FB00BF0D
:100628003000002440410052F0B5B7B00021142238
:1006380001A803F081F8334B196800295FD1012222
:1006480008A81A60B82203F077F84FF080720023E8
:1006580006A8CDE9062301F063FC08B100F064F9AF
:10066800294B002402270326D3F8D4200C2501A9FE
:10067800264842F48052C3F8D420D3F8D4300595E4
:1006880003F480530093009B4FF63F03CDE90346E4
:10069800CDE9013700F088FD2C2301A91C480595F8
:1006A800CDE90137CDE9034600F07EFD48F2371366
:1006B80001A918480595CDE90137CDE9034600F0B1
:1006C80073FD4FF6837301A913480595CDE90137EA
:1006D800CDE9034600F068FD4CF2037301A90F4809
:1006E8000595CDE90137CDE9034600F05DFD3020E1
:1006F8002246214600F0CEFA302000F0FDFA37B04D
:10070800F0BD00BF2C000024004402580014025819
:10071800001C02580018025800100258000C025819
:1007280010B58CB014220021364C07A803F004F849
:10073800354B20464FF40051D3F8E02042F0040234
:10074800C3F8E020D3F8E02002F004020092009AF7
:10075800D3F8E02042F02002C3F8E020D3F8E020EC
:1007680002F020020192019AD3F8E02042F08002C0
:10077800C3F8E020D3F8E02002F080020292029A47
:10078800D3F8E02042F04002C3F8E020D3F8E0209C
:1007980002F040020392039AD3F8E02042F01002DC
:1007A800C3F8E020D3F8E02002F010020492049A83
:1007B800D3F8E02042F00802C3F8E020D3F8E020A4
:1007C80002F008020592059AD3F8E02042F00102EF
:1007D800C3F8E0200022D3F8E03003F001030693C9
:1007E800069B00F0C9FD4FF40052012307A92046DB
:1007F800CDE907230023CDE9093300F0D5FC0CB07F
:1008080010BD00BF000802580044025810B59EB041
:100818004C2200210BA802F08FFF2022002103A800
:1008280002F08AFF022000F0ADFD00230093354B53
:10083800DA6A22F00102DA62DB6A03F0010300934C
:10084800314B9A6942F440429A619A6902F44042F3
:100858000092009A9A699204FCD52C4AD2F8F410B6
:1008680041F00201C2F8F410D2F8F42002F00202BA
:100878000192019A002202929A6942F440429A61D6
:100888009B6903F4404302931E4BDA6A42F001026B
:10089800DA62DB6A1C4A03F001030293029B936944
:1008A8009C04FCD54FF4803301210520C022082484
:1008B800CDE90B130223CDE91433CDE918331A938C
:1008C8000023CDE916020BA81D93CDE91B4300F0C8
:1008D8007DFD08B172B6FEE73F2203230421CDE96E
:1008E800032340234FF48062CDE9050403A8CDE932
:1008F8000733CDE9092301F0B7F808B172B6FEE76E
:100908001EB010BD000400580048025800440258A8
:1009180008B500F067F9FFF779FFFFF701FFFFF768
:100928004FFE00F08BF8FEE772B6FEE7074B82B089
:10093800D3F8F42042F00202C3F8F420D3F8F430DC
:1009480003F002030193019B02B070470044025870
:10095800FEE7FEE7FEE7FEE7FEE7704770477047F1
:1009680000F06EB9014802F09BB900BF6400002492
:10097800014802F04CB900BF30000024254AD2F8E3
:10098800883043F47003C2F88830234A136803F0B0
:100998000F03062B05D8136823F00F0343F0070352
:1009A80013601E4B1A6842F001021A6000221A6195
:1009B8001B4A19680A4018491A600A68120705D5BF
:1009C8000A6822F00F0242F007020A600022154965
:1009D8009A61DA611A6299621349D96213491963F3
:1009E8005A639963DA6319645A64196821F4802197
:1009F80019601A660E4B1B681B0C1B04B3F1005FD1
:100A080003D20C4B0122C3F808210B4B43F2D2024C
:100A18001A60704700ED00E00020005200440258C0
:100A28007FEDF6EA000202020000FF0180020101E8
:100A38000010005C008000510040005208B51648C4
:100A48004FF4E133154AC0E9002300230C22C0E922
:100A580002330361C0E90523C0E90733C0E909335C
:100A680002F04CFD08B1FFF75FFF00210A4802F0D1
:100A7800B5FD08B1FFF758FF0021074802F0CEFD89
:100A880008B1FFF751FF044802F08DFD18B1BDE829
:100A98000840FFF749BF08BD64000024001001406A
:100AA80010B5B8B004461422002103A802F044FE91
:100AB800C022002108A802F03FFE22681E4B9A427D
:100AC80038D10122002308A8CDE9082301F028FA2B
:100AD80008B1FFF729FF194B002403A91848D3F8D8
:100AE800F02042F01002C3F8F020D3F8F02002F012
:100AF80010020192019AD3F8E02042F00102C3F8F3
:100B0800E0204FF4C062D3F8E03003F00103029311
:100B1800029B0223CDE903230723CDE9054407936C
:100B280000F042FB25202246214600F0B3F825209C
:100B380000F0E2F838B010BD00100140004402583F
:100B480000000258DFF834D0FFF718FF0C480D49B1
:100B58000D4A002302E0D458C4500433C4188C4210
:100B6800F9D30A4A0A4C002301E013600432A24276
:100B7800FBD302F0E9FDFFF7CBFE70470000082425
:100B88000000002410000024F8370008100000249A
:100B9800FC000024FEE7000038B50F4B05461A7824
:100BA8000AB9012038BD4FF47A73B3FBF2F30B4A4C
:100BB8001068B0FBF3F000F0ADF804460028F0D15F
:100BC8000F2DEED8024629464FF0FF3000F062F8AC
:100BD800034B20461D60E5E70800002404000024BC
:100BE8000C00002410B5032000F042F800F09AFE33
:100BF8000F49104A8B69C3F30323D35C03F01F0327
:100C0800D8408B6903F00F03D35C0B4A03F01F0332
:100C180020FA03F31360094B18600F20FFF7BCFF9D
:100C2800044618B9FFF782FE204610BD0124FBE7F1
:100C380000440258B03700080000002404000024D3
:100C4800034A044B11681B780B441360704700BFBC
:100C5800F800002408000024014B1868704700BF02
:100C6800F8000024014B1868000C70470010005C65
:100C780007490302CA6803F4E06322F4E06212043D
:100C8800120C134343F0BF6343F40033CB60704747
:100C980000ED00E0164B30B5DC68C4F30224C4F163
:100CA8000703251D042B28BF0423062D4FF0FF350D
:100CB8008CBF033C002405FA03F3002805FA04F569
:100CC80021EA030322EA050203FA04F343EA0203D2
:100CD8004FEA0313DBB206DB00F1604000F5614028
:100CE80080F8003330BD00F00F00024A1354F9E7D2
:100CF80000ED00E014ED00E0002807DB01234109C6
:100D080000F01F00024A834042F82130704700BFBC
:100D180000E100E00138B0F1807F0BD24FF0E02312
:100D2800054AF0215861002082F8231007229861B3
:100D38001A6170470120704700ED00E0F8B50546DC
:100D4800FFF78AFF074645B195F83530022B06D0E4
:100D580080236B65002385F834300120F8BD2C68AA
:100D6800A94EB4424AD0A94B9C4247D018339C4262
:100D780044D018339C4241D018339C423ED018339B
:100D88009C423BD018339C4238D018339C4235D013
:100D980003F556739C4231D018339C422ED0183339
:100DA8009C422BD018339C4228D018339C4225D023
:100DB80018339C4222D018339C421FD018339C42CF
:100DC8001CD0236823F00E032360914B9C421FD054
:100DD80014339C421CD014339C4219D014339C42C7
:100DE80016D014339C4213D014339C4210D01433C1
:100DF8009C420DD014339C4212D109E02368B442BE
:100E080023F01E032360636923F08003636176D1B6
:100E18002A6EB442136823F48073136040F0AB80E9
:100E2800236823F0010323602368DB0700F1CD80EA
:100E38002B68EA6DB342A86D02F01F0200F0D18062
:100E480072498B4200F0CD8018318B4200F0C98086
:100E580018318B4200F0C58018318B4200F0C180F8
:100E680018318B4200F0BD8018318B4200F0B980F8
:100E780018318B4200F0B58001F556718B4200F0B5
:100E8800B08018318B4200F0AC8018318B4200F0F2
:100E9800A88018318B4200F0A48018318B4200F0F2
:100EA800A08018318B4200F09C8018318B4200F0F2
:100EB800988018318B4200F09480012101FA02F2E7
:100EC8004260534A934200F092801432934200F0F9
:100ED8008E801432934200F08A801432934200F0DC
:100EE80086801432934200F08280143293427ED07E
:100EF800143293427BD0143293427ED177E0434B35
:100F08009C4285D018339C4282D018339C423FF4CF
:100F18007FAF18339C423FF47BAF18339C423FF4B9
:100F280077AF18339C423FF473AF18339C423FF4B9
:100F38006FAF03F556739C423FF46AAF18339C4277
:100F48003FF466AF18339C423FF462AF18339C42BB
:100F58003FF45EAF18339C423FF45AAF18339C42BB
:100F68003FF456AF18339C423FF452AF18339C42BB
:100F78003FF44EAF29E7254B9C423FF451AF18335D
:100F88009C423FF44DAF18339C423FF449AF1833AD
:100F98009C423FF445AF18339C423FF441AF1833AD
:100FA8009C423FF43DAF18339C423FF439AF03F500
:100FB80056739C423FF434AF18339C423FF430AF31
:100FC80018339C423FF42CAF2AE7FFF745FEC01BBD
:100FD80005287FF629AF20236B65032385F8353074
:100FE800B8E63F21B34201FA02F2826012D1D5E994
:100FF80019325A60EB6E002B3BD10123002085F893
:10100800353085F83400A9E6100002402800024077
:10101800085402581B4A9342E9D018329342E6D04A
:1010280018329342E3D018329342E0D018329342F8
:10103800DDD018329342DAD018329342D7D002F575
:1010480056729342D3D018329342D0D0183293427A
:10105800CDD018329342CAD018329342C7D0183232
:101068009342C4D018329342C1D018329342BED0B2
:1010780027E71A6822F480721A60D5E91C325A6090
:10108800BBE700BF2800024008B528B190F835300A
:10109800022B03D08023436501205DE003683F4AAB
:1010A800934251D0183293424ED0183293424BD0CB
:1010B8001832934248D01832934245D0183293429E
:1010C80042D0183293423FD0183293423CD002F5B6
:1010D8005672934238D01832934235D01832934220
:1010E80032D0183293422FD0183293422CD0183273
:1010F800934229D01832934226D01832934223D0F3
:101108001A6822F00E021A601A6822F001021A60A8
:10111800234A934221D1026E136823F4807313602B
:10112800D0E9161303F01F02012393404B60D0E966
:1011380019325A60C36E2BB31A6822F480721A608F
:10114800D0E91C325A601DE0042280F835201A6864
:1011580022F001021A60002008BD124A9342DAD038
:1011680014329342D7D014329342D4D014329342DB
:10117800D1D014329342CED014329342CBD0143211
:101188009342C8D0012380F83530002380F83430EA
:10119800036D002BDFD09847DDE700BF1000024049
:1011A800085402581C5402582DE9F74F0023DFF861
:1011B800C4914FF0B0440A6832FA03F502D103B083
:1011C800BDE8F08F012505FA03F818EA020200F0DD
:1011D800BB804E6803274FEA430E06F0030507FA63
:1011E8000EFC6F1E6FEA0C0C012F34D8876807EAD3
:1011F8000C0ACF6807FA0EF747EA0A0787604768BC
:1012080027EA0808C6F300179F4047EA080747601F
:10121800C768022D07EA0C088F6807FA0EF747EA35
:101228000807C76019D14FEAD30803F0070A4FF03F
:101238000F0B00EB88084FEA8A0AD8F820700BFADF
:101248000AFB27EA0B0B0F6907FA0AF747EA0B07AD
:10125800C8F8207001E0032DDAD1076805FA0EF509
:1012680016F4403F07EA0C0745EA070505606BD00E
:10127800D9F8F45023F0030703F0030C4FF00F0ED6
:1012880045F0020507F1B0474FEA8C0CC9F8F45055
:1012980007F58067D9F8F4500EFA0CFE05F0020540
:1012A8000195019DBD6825EA0E0E314DA8424DD02D
:1012B80005F58065A8424BD005F58065A84249D060
:1012C80005F58065A84247D005F58065A84245D058
:1012D80005F58065A84243D005F58065A84241D050
:1012E80005F58065A8423FD005F58065A8423DD048
:1012F80005F58065A84214BF0A25092505FA0CF5ED
:1013080016F4801F45EA0E05BD606FEA02072568DE
:101318000CBF3D40154316F4001F256065680CBFDF
:101328003D40154316F4003F6560D4F884500CBF67
:101338003D401543F603C4F88450D4F8805054BF98
:101348003D401543C4F88050013334E70025D5E704
:101358000125D3E70225D1E70325CFE70425CDE70B
:101368000525CBE70625C9E70725C7E70825C5E70B
:1013780000000258004402580AB18161704709040C
:10138800FBE7000038B5104CE36813F0040FE3687E
:1013980005D103F00703181A18BF012038BD23F040
:1013A80007031843E060FFF757FC054663689B0492
:1013B80001D50020F2E7FFF74FFC401BB0F57A7F1C
:1013C800F4D90120EAE700BF00480258F8B50446FE
:1013D800002874D00368D8075ED42368990700F101
:1013E800AD802368DA0627D59C4A1369916A03F011
:1013F8003803082B07D0182B40F0038101F00303B2
:10140800012B40F0FE801368DB0502D5E369802BD1
:1014180055D1FFF727FC41F20303216A98428F4B0D
:1014280000F2E8805A68202922F0F8420CBF42F006
:10143800804242EA81625A602368190700F12381D9
:1014480023689A0600F1448123685D071ED5844D00
:101458002B6843F480732B60FFF7FEFB06462B686E
:10146800DA0540F15A81A3687C4D012B40F05C817C
:101478002B6F43F001032B6741F28837FFF7ECFB32
:10148800764E0546336F9B0740F17481616A0029E7
:1014980040F0778100202BE0704A1369916A03F0CD
:1014A8003803102B05D0182B0BD101F00303022BA6
:1014B80007D113689A0390D56368002B8DD101205A
:1014C80016E06368654DB3F5803F12D12B6843F48D
:1014D80080332B60FFF7C0FB604E054633689B03E3
:1014E8003FF57BAFFFF7B8FB401B6428F6D9032014
:1014F800F8BDA3B92B6823F480332B602B6823F441
:1015080080232B60FFF7A8FB06462B689F037FF517
:1015180064AFFFF7A1FB801B6428F6D9E7E7B3F5B2
:10152800A02F2B6803D143F480232B60CEE723F44C
:1015380080332B602B6823F48023CAE74749E2688D
:101548000B69886A13F0380303D0182B2AD1800757
:1015580028D10B685B0701D5002AB0D03F4D2B6816
:1015680023F0190313432B60FFF776FB06462B681D
:101578005F0711D5FFF776FB41F203032269984212
:101588006B6822D823F47C33402A0CBF43F4003321
:1015980043EA02336B6024E7FFF75EFB801B0228F7
:1015A800E5D9A4E72D4D2B68A2B123F01903134305
:1015B8002B60FFF751FB06462B685807DAD4FFF774
:1015C8004BFB801B0228F7D991E723F0FE4343EA3F
:1015D8000263DFE723F001032B60FFF73DFB0646BC
:1015E8002B6859077FF5FDAEFFF736FB801B0228F5
:1015F800F6D97CE7DA6822F07C5242EA0162DA60C6
:101608001AE7E369154D6BB32B6843F080032B6031
:10161800FFF722FB06462B68DF0511D5FFF722FBF3
:1016280041F20303226A984210D86B68202A23F0FB
:10163800F8430CBF43F0804343EA82636B60FBE6E8
:10164800FFF70AFB801B0228E5D950E7EB6823F077
:101658007C5343EA0263EB60EEE600BF00440258A5
:10166800004802582B6823F080032B60FFF7F4FA38
:1016780006462B68D8057FF5DFAEFFF7EDFA801B2D
:101688000228F6D933E76369A54D83B16B6F43F040
:1016980001036B67FFF7E0FA06466B6F9B073FF5A0
:1016A800CFAEFFF7D9FA801B0228F6D91FE76B6F78
:1016B80023F001036B67FFF7CFFA06466B6F9F07AE
:1016C8007FF5BEAEFFF7C8FA801B0228F6D90EE7F1
:1016D800A369934D83B12B6843F480532B60FFF7C4
:1016E800BBFA06462B6898043FF5AEAEFFF7B4FA8E
:1016F800801B0228F6D9FAE62B6823F480532B6066
:10170800FFF7AAFA06462B6899047FF59DAEFFF706
:10171800A3FA801B0228F6D9E9E6FFF79DFA801B99
:1017280064287FF69CAEE2E6B3B92B6F41F28837A6
:1017380023F001032B672B6F23F004032B67FFF7BC
:101748008BFA06462B6F98077FF5A0AEFFF784FA51
:10175800801BB842F6D9CAE6052B2B6F03D143F09C
:1017680004032B6784E623F001032B672B6F23F018
:10177800040380E6FFF770FA401BB8427FF682AE9A
:10178800B5E6674D2B6903F03803182B7AD02B6820
:10179800022923F080732B6067D1FFF75DFA0646B4
:1017A8002B6899015BD4AB6AA26A23F47C7323F09B
:1017B80003031343E26A43EA0213AB62636BA26B4F
:1017C800013B013A5B0212049BB202F4FE0213438E
:1017D800226B013AC2F308021343E26B013A120684
:1017E80002F0FE4213432B63EB6A23F00103EB6222
:1017F8006B6BA26C23F47F4323F0F80343EAC20324
:101808006B63EB6A226C23F00C031343EB62EB6A05
:10181800626C23F002031343EB62EB6A43F48033F8
:10182800EB62EB6A43F40033EB62EB6A43F4802328
:10183800EB62EB6A43F00103EB622B6843F08073C1
:101848002B60FFF709FA364D04462B689A013FF5DD
:1018580021AEFFF701FA001B0228F6D947E6FFF789
:10186800FBF9801B02289BD941E6FFF7F5F90446EE
:101878002B689B017FF50EAEFFF7EEF9001B0228DF
:10188800F6D934E60129AA6A2B6B3FF418AE02F0A8
:101898000301A06A81427FF412AEC2F30512E16A25
:1018A8008A427FF40CAE226BC3F30801013A9142DD
:1018B8007FF405AE626BC3F34621013A91427FF48F
:1018C800FEADA26BC3F30641013A91427FF4F7AD36
:1018D800E26BC3F30663013A93427FF4F0AD6B6B9E
:1018E800A26CC3F3CC039A423FF4D4AD0C4DEB6A1F
:1018F80023F00103EB62FFF7AFF90646FFF7ACF9F7
:10190800B042FBD06B6BA26C23F47F4323F0F80347
:1019180043EAC2036B63EB6A43F00103EB62B9E588
:1019280000440258494B1A6902F03802102A30B5AF
:1019380000F08880182A0CD0002A40F085801A68A8
:10194800434812F0200F03D01B68C3F3C103D840EB
:1019580030BD996A9D6ADC6A15F47C7FC5F3051071
:101968005A6BF5D0C2F3CC0204F0010401F0030174
:1019780007EE900A6243B7EE006A0129B8EEE77AEB
:1019880006EE902AFAEEE96A4ED002293ED00029E6
:101998004AD11A68920627D519682D4AC1F3C101A0
:1019A8001B6BCA40C3F3080307EE902AF8EEE75A08
:1019B800C5EE877A07EE103AB8EEC77A37EE267A80
:1019C80037EE067A67EE877A204B1B6BC3F3462304
:1019D800013307EE103AF8EEC76A87EEA67AFCEEF6
:1019E800C77A17EE900AB3E71B6BC3F3080307EE39
:1019F800903AF8EEE77A77EEA67A77EE867A9FED58
:101A0800156AC6EE076A67EEA67ADDE71B6BC3F3B5
:101A1800080307EE903AF8EEE77A77EEA67A77EEC3
:101A2800867A9FED0D6AECE71B6BC3F3080307EE9C
:101A3800903AF8EEE77A77EEA67A77EE867A9FED17
:101A4800076ADEE7064883E7064881E7004402584C
:101A58000090D0030024744C20BCBE4B0024744A70
:101A680040787D0100093D002DE9F0410D4604460E
:101A780010B90120BDE8F081884A136803F00F030C
:101A88008B42C0F0938023685F0700F19B801E079C
:101A98000BD583496069CA6902F07002904204D983
:101AA800CA6922F070020243CA61D8060BD57C4984
:101AB800A069CA6902F4E062904204D9CA6922F4B2
:101AC800E0620243CA6199060BD57549E0690A6A62
:101AD80002F07002904204D90A6A22F070020243AE
:101AE8000A629A070BD56E49E0688A6902F00F020C
:101AF800904204D98A6922F00F0202438A61DF0703
:101B08006ED423689E0700F1A18064490A6802F038
:101B18000F02AA4200F2A880580700F1B180190705
:101B28000BD55F496069CA6902F07002904204D21D
:101B3800CA6922F070020243CA61DA060BD5584915
:101B4800A069CA6902F4E062904204D2CA6922F428
:101B5800E0620243CA619B060BD5514AE169136AE8
:101B680003F07003994204D2136A23F070030B4305
:101B78001362FFF7D7FE4A494A4A8B69C3F3032326
:101B8800D35C03F01F03D8408B6903F00F03D35CC9
:101B9800454A03F01F0320FA03F31360434B186010
:101BA800434BBDE8F0411868FEF7F6BF136823F011
:101BB8000F030B431360136803F00F038B427FF48A
:101BC80058AF60E7364920698A6902F0700290428E
:101BD8007FF65DAF8A6922F0700202438A6156E798
:101BE8002F4BA1689A6922F470620A439A6161686E
:101BF8001A6802291DD112F4003F3FF43AAF1A695E
:101C080041F28838264F22F007020A431A61FFF78B
:101C180023F806463B69626803F03803B3EBC20F4A
:101C28003FF46FAFFFF718F8801B4045F2D9032047
:101C380020E7032902D112F0007FDEE7012902D153
:101C480012F4807FD9E712F0040FD6E71449E06850
:101C58008A6902F00F029042BFF457AF8A6922F0F6
:101C68000F0202438A6150E70A6822F00F022A43F2
:101C78000A600A6802F00F02AA427FF4FAAE4BE744
:101C8800074920698A6902F070029042BFF447AFA1
:101C98008A6922F0700202438A6140E700200052FC
:101CA80000440258B0370008000000240400002453
:101CB8000C00002408B5FFF735FE0B4A0B49936961
:101CC8009269C3F3032302F00F02CB5C03F01F03F6
:101CD80020FA03F3885C064A00F01F0023FA00F09C
:101CE8001060044A136008BD00440258B037000869
:101CF800000000240400002408B5FFF7DBFF054BB3
:101D0800054ADB69C3F30213D35C03F01F03D84011
:101D180008BD00BF00440258B037000808B5FFF7F7
:101D2800C9FF054B054ADB69C3F30223D35C03F003
:101D38001F03D84008BD00BF00440258B037000850
:101D4800F8B53A4C06460D46A36A03F00303032B85
:101D580069D0236823F080632360FEF77DFF074680
:101D680023681A014BD4A36A326823F47C3343EA0C
:101D78000233A362B368F268013B013A5B021204C2
:101D88009BB202F4FE0213437268013AC2F30802DE
:101D980013433269013A120602F0FE421343A36369
:101DA800E36A726923F0C0031343E362E36AB2692A
:101DB80023F020031343E362E36A23F01003E36292
:101DC800E36BF26923F47F4323F0F80343EAC20389
:101DD800E363E36A43F01003E362E36AB5B943F4EB
:101DE8000023E362114C236843F080632360FEF70D
:101DF80033FF054623681B010FD5002005E0FEF7D9
:101E08002BFFC01B0228ABD90320F8BD012D0CBF46
:101E180043F4801343F40013E3E7FEF71DFF401B70
:101E28000228E7D9F0E70120EFE700BF0044025895
:101E3800F8B53A4C06460D46A36A03F00303032B94
:101E480069D0236823F080532360FEF705FF074617
:101E580023689A004BD4A36A326823F07C7343EA60
:101E68000253A362B368F268013B013A5B021204B1
:101E78009BB202F4FE0213437268013AC2F30802ED
:101E880013433269013A120602F0FE4213432364F7
:101E9800E36A726923F440631343E362E36AB26955
:101EA80023F400731343E362E36A23F48073E36269
:101EB800636CF26923F47F4323F0F80343EAC20317
:101EC8006364E36A43F48073E362E36AB5B943F495
:101ED8008003E362114C236843F080532360FEF7CC
:101EE800BBFE054623689B000FD5002005E0FEF7E2
:101EF800B3FEC01B0228ABD90320F8BD012D0CBFCF
:101F080043F4000343F08073E3E7FEF7A5FE401BAC
:101F18000228E7D9F0E70120EFE700BF00440258A4
:101F28002DE9F8430368054618011ED5AB6EB3F5D5
:101F3800001F2BD00FD8D3B1B3F5801F1DD00126B9
:101F48002B68D90551D5AB6D042B4DD8DFE803F0CC
:101F5800243F46292900B3F5401FF0D1854AA96ED0
:101F6800136D23F440130B4313650026E8E7814AF9
:101F7800D36A43F40033D362F0E7022105F1080085
:101F8800FFF7DEFE06460028DAD1E7E7022105F171
:101F98002800FFF74DFFF5E7764AD36A43F400338C
:101FA800D36234461CBB734AA96D136D23F0070333
:101FB8000B4313652B689A0528D5EB6D802B43D00E
:101FC80017D8A3B3402B38D0012634461EE0002191
:101FD80005F10800FFF7B4FE0446E3E7002105F128
:101FE8002800FFF725FFF7E701263446E2E72646F3
:101FF800E0E7C02B02D0B3F5807FE5D154BB5D4A42
:10200800E96D136D23F4E0730B4313652B685B05CF
:1020180031D5D5F8A830B3F5800F49D01CD8002B9E
:1020280039D0B3F5001F3CD00126344623E0514A8D
:10203800D36A43F40033D362E0E7002105F10800D6
:10204800FFF77EFE0446D9E7002105F12800FFF7D7
:10205800EFFEF7E72646D9E7B3F5C00F02D0B3F590
:10206800000FE1D154BB434AD5F8A810936D23F46F
:1020780060030B4393652B681F0530D5D5F8AC304A
:10208800B3F1007F45D01BD8B3B3B3F1807F39D00B
:102098000126344623E0374AD36A43F40033D36237
:1020A800E0E7002105F10800FFF74AFE0446D9E7FA
:1020B800002105F12800FFF7BBFEF7E72646DAE71F
:1020C800B3F1407F02D0B3F1806FE1D13CBB294A24
:1020D800D5F8AC10936D23F0E0630B4393652B6840
:1020E800980128D5EB6C202B3BD01AD8DBB1102BEC
:1020F80031D0012634461EE01E4AD36A43F4003329
:10210800D362E3E7002105F10800FFF719FE044652
:10211800DCE7002105F12800FFF78AFEF7E72646ED
:10212800DDE7302BE5D11CBB124AE96CD36C23F0F8
:1021380030030B43D3642B68D9042CD52B6EB3F52D
:10214800005F76D018D8002B66D0B3F5805F69D0D1
:10215800012634461FE0074AD36A43F40033D362AA
:10216800E1E7022105F10800FFF7EAFD0446DAE796
:102178002646E0E700440258B3F5405F02D0B3F5C5
:10218800804FE5D1002C5AD19E4A296E136D23F455
:10219800E0430B4313652B689A040BD56B6EB3F5BC
:1021A800003F66D04DD8002B53D0B3F5803F59D0AF
:1021B800012634462B685B040CD5D5F8B030B3F152
:1021C800005F77D05DD8002B63D0B3F1805F6AD011
:1021D800012634462B681F0411D52B6FB3F1805F9D
:1021E80070D0B3F1005F73D0002B78D1002C79D177
:1021F800844A296F136D23F040530B4313652B68F2
:10220800D8017FD5AB6C032B00F2D880DFE813F040
:1022180071006C00CF0071007A4AD36A43F400332E
:10222800D362AFE7002105F10800FFF789FD0446F6
:10223800A8E7002105F12800FFF7FAFDF7E7264691
:10224800A9E723F48032B2F5802F02D0B3F5403FDE
:10225800AED1A4B96B4A696E136D23F4E0230B4326
:102268001365A7E7012105F10800FFF769FD04469A
:10227800EFE7012105F12800FFF7DAFDF7E7264629
:1022880098E723F08052B2F1804F02D0B3F1405F5B
:102298009ED1ACB95B4AD5F8B010936D23F0E043FA
:1022A8000B43936596E7012105F10800FFF748FD08
:1022B8000446EEE7012105F12800FFF7B9FDF7E72D
:1022C800264687E74F4AD36A43F40033D3628DE743
:1022D800012105F10800FFF733FD044686E70126D2
:1022E80034468CE726468AE7464AD36A43F40033E5
:1022F800D362002C65D1434AA96CD36C23F0030345
:102308000B43D3642B68590239D53F4F3B6843F4DC
:1023180080733B60FEF7A0FC80463B68DA0552D527
:10232800002C75D1374BD5F8B4001A6F424012F41F
:10233800407F0BD01A6F196F22F4407241F480313C
:102348001967196F21F4803119671A67B0F5807F12
:1023580042D0D5F8B4302B4903F44072B2F5407F2F
:102368004BD10869294A20F47C5002EA131202432F
:102378000A61C3F30B03234A116F0B4313672B68DE
:10238800D80709D5EB6F102B5AD043D8002B47D06C
:10239800082B4ED0012634462B68990766D5AB6FBB
:1023A800052B79D8DFE803F05A54725A5A5A022199
:1023B80005F10800FFF7C4FC04469AE701263446F5
:1023C800A0E726469EE7FEF747FCA0EB0800642836
:1023D800A3D903263446D2E7FEF73EFCDFF8248073
:1023E800074641F28839D8F870309B07B1D4FEF718
:1023F80033FCC01B4845F6D9EBE70A6922F47C5246
:10240800B6E700BF0044025800480258CFFFFF005B
:102418002646B4E723F00802202A01D0182BB9D1A8
:10242800A4B9204AE96F536D23F038030B43536571
:10243800B2E7012105F10800FFF782FC0446EFE747
:10244800012105F12800FFF7F3FCF7E72646A3E78B
:10245800012105F10800FFF773FC0446FCB9114A95
:10246800A96F536D23F007030B4353652B685A0775
:102478002BD5D5F89430052B00F26E81DFE813F0E8
:102488001A00140066011A001A001A00012105F149
:102498002800FFF7CDFCE0E701263446E6E72646AC
:1024A800E4E700BF00440258012105F10800FFF7E6
:1024B80047FC0446002C40F05281AA4AD5F89410F3
:1024C800936D23F007030B4393652B689B0610D588
:1024D800D5F89030B3F1005F00F0608100F24481DC
:1024E800002B00F04A81B3F1805F00F05081012693
:1024F80034462B685F0610D5D5F89C30B3F5006FCD
:1025080000F06E8100F25281002B00F05881B3F583
:10251800806F00F05E81012634462B68180610D5BE
:10252800D5F8A030B3F5804F00F07C8100F26081CF
:10253800002B00F06681B3F5005F00F06C81012686
:1025480034462B68190714D5D5F88430B3F5805F65
:1025580007D1022105F12800FFF76AFC002818BFFF
:102568000126804AD5F88410536D23F440530B4359
:1025780053652B68DA0614D5D5F89830B3F5807F03
:1025880007D1022105F12800FFF752FC002818BFE7
:102598000126744AD5F89810936D23F440730B43C1
:1025A80093652B681B031BD5D5F8A410B1F5803FA4
:1025B80000F04081B1F5003F07D0002940F040818C
:1025C80005F10800FFF7BCFB0446002C40F03B81F6
:1025D800644AD5F8A410936D23F440330B439365F4
:1025E8002B685F030FD5D5F88830B3F5001F00F0CE
:1025F8003B81B3F5401F00F02D81B3F5801F00F03B
:102608002481012634462B68D80309D52B6D002B6D
:1026180000F03381B3F5803F00F03D810126344658
:102628002B68990007D5022105F12800FFF700FC67
:10263800002818BF0126D5E900319A0340F14381EB
:10264800D5F88000B0F5807F00F03F8100F22C8142
:10265800002800F02F810124DF0206D541486E6F63
:10266800026D22F0004232430265DE0007D53D4884
:10267800D5F8B860026922F48042324302619802B8
:1026880006D53848EE6E026D22F08072324302653C
:102698005A0009D5334A106920F4004010611069C6
:1026A800D5F8BC6030431061002B06DA2D486E6DFA
:1026B800C26C22F040523243C2641F0207D5294A35
:1026C800D5F88C00536D23F4400303435365CE07BC
:1026D80006D5002105F10800FFF732FB074600B9CF
:1026E80027466B689C0706D5012105F10800FFF70E
:1026F80027FB064600B93E466B68580706D50221F7
:1027080005F10800FFF71CFB044600B934466B6866
:10271800190706D5002105F12800FFF789FB0646B1
:1027280000B926466B68DA0606D5012105F12800AE
:10273800FFF77EFB044600B934466B689B0600F140
:10274800CA80201E18BF0120BDE8F883012105F1C9
:102758002800FFF76DFBACE601263446B5E62646B1
:10276800B3E600BF0044025823F08052B2F1804F14
:1027780003D0B3F1405F7FF4BAAEACB95B4AD5F889
:102788009010536D23F0E0430B435365B1E60021ED
:1027980005F10800FFF7D4FA0446EEE7022105F137
:1027A8002800FFF745FBF7E72646A2E623F48062F8
:1027B800B2F5805F03D0B3F5406F7FF4ACAEACB92F
:1027C8004A4AD5F89C10936D23F4E0530B43936564
:1027D800A3E6002105F10800FFF7B2FA0446EEE788
:1027E800022105F12800FFF723FBF7E7264694E6C8
:1027F80023F40052B2F5004F03D0B3F5C04F7FF475
:102808009EAEACB9394AD5F8A010936D23F4604355
:102818000B43936595E6002105F10800FFF790FA50
:102828000446EEE7022105F12800FFF701FBF7E770
:10283800264686E6022105F12800FFF7F9FAC3E6E5
:1028480001263446CCE62646CAE6284AD36A43F42B
:102858000033D3627CB9254AD5F88810536D23F428
:1028680040130B435365CEE6012105F12800FFF71D
:10287800DFFA0446EEE72646C5E61C4AD36A43F467
:102888000033D36274B9194A296DD36C23F48033A9
:102898000B43D364C4E6022105F10800FFF750FAA0
:1028A8000446EFE72646BBE620F48072B2F5007FC7
:1028B8007FF4D1AE002C7FF4CFAE0C4C626D22F4C5
:1028C8004072024362653446C6E6084FFA6A42F42B
:1028D8000032FA62EEE7022105F12800FFF7A8FAB4
:1028E80000283FF42EAF01202EE700BF0044025815
:1028F80008B5FFF7DFF9054B054A1B6AC3F3021356
:10290800D35C03F01F03D84008BD00BF0044025841
:10291800B03700084F4970B58C6A8E6ACD6A16F4D4
:102928007C3FC6F30533CA6B00F0908007EE903AFF
:10293800C2F3CC03C5F3001204F00304B8EEE77A3F
:102948005343012CB7EE006A06EE903AFAEEE96AB4
:102958006ED0022C5ED0002C6AD10B689B0647D53E
:102968000A688B6BC2F3C1013B4AC3F30803CA4030
:1029780007EE902AF8EEE75AC5EE877A07EE103A86
:10298800B8EEC77A37EE267A37EE067A67EE877A98
:10299800304A936BC3F3462307EE103AB8EEC77A72
:1029A80037EE067AC7EE876AFCEEE66AC0ED006A83
:1029B800936BC3F3064307EE103AB8EEC77A37EEC7
:1029C800067AC7EE876AFCEEE66AC0ED016A936B89
:1029D800C3F3066306EE903AF8EEE66A76EE866A88
:1029E80087EEA67AFCEEC77A17EE903A836070BD40
:1029F8008B6BDFED1A5AC3F3080307EE903AF8EE33
:102A0800E77A77EEA67A77EE867AC5EE876A67EE7A
:102A1800A67ABDE78B6BDFED125AC3F3080307EE06
:102A2800903AF8EEE77A77EEA67A77EE867AECE7D0
:102A38008B6BDFED0C5AC3F3080307EE903AF8EE00
:102A4800E77A77EEA67A77EE867ADEE7C0E9003392
:102A5800CCE700BF004402580090D0030024744C17
:102A680020BCBE4B0024744A4F4970B58C6A8E6AEC
:102A7800CD6A16F07C7FC6F305534A6C00F090804F
:102A880007EE903AC2F3CC03C5F3002204F0030426
:102A9800B8EEE77A5343012CB7EE006A06EE903A97
:102AA800FAEEE96A6ED0022C5ED0002C6AD10B686F
:102AB8009B0647D50A680B6CC2F3C1013B4AC3F3B6
:102AC8000803CA4007EE902AF8EEE75AC5EE877A5F
:102AD80007EE103AB8EEC77A37EE267A37EE067A5E
:102AE80067EE877A304A136CC3F3462307EE103A31
:102AF800B8EEC77A37EE067AC7EE876AFCEEE66A62
:102B0800C0ED006A136CC3F3064307EE103AB8EE43
:102B1800C77A37EE067AC7EE876AFCEEE66AC0ED3A
:102B2800016A136CC3F3066306EE903AF8EEE66AA0
:102B380076EE866A87EEA67AFCEEC77A17EE903AAA
:102B4800836070BD0B6CDFED1A5AC3F3080307EE00
:102B5800903AF8EEE77A77EEA67A77EE867AC5EEBF
:102B6800876A67EEA67ABDE70B6CDFED125AC3F3EE
:102B7800080307EE903AF8EEE77A77EEA67A77EE52
:102B8800867AECE70B6CDFED0C5AC3F3080307EE0B
:102B9800903AF8EEE77A77EEA67A77EE867ADEE76D
:102BA800C0E90033CCE700BF004402580090D003CE
:102BB8000024744C20BCBE4B0024744A38B50D4622
:102BC8000446F0B190F82C3003F0FF021BB980F8EE
:102BD8002D20FDF729FD0223211D206884F82C30C3
:102BE80000F03CFD62682946206800F06FFD064A47
:102BF8000020136843F000431360012384F82C304D
:102C080038BD0120FCE700BF004000527047036850
:102C18009B69DB0710B5044606D5FFF7F7FF226866
:102C2800536943F00103536110BD000010B50268F9
:102C380052E8003F23F4907342E80031026800290B
:102C4800F5D10F4C02F1080353E8003F234002F18D
:102C5800080C4CE800310029F4D1C36E012B07D1D0
:102C680052E8003F23F0100342E800310029F7D171
:102C78002023C0F88C300023C366436710BD00BF13
:102C8800FEFFFFEF7047704708B5806B0023A0F880
:102C98005E30A0F85630FFF7F6FF08BD7047000019
:102CA80003682DE9F041D96940F60F061A68044611
:102CB80031429D6810D18E0640F1978002F02006BF
:102CC80005F080573E4300F09080436F002B00F0E2
:102CD8008580BDE8F0411847AA4EAB482E40104009
:102CE800304300F08280CF0709D5D00507D50120F1
:102CF8001862D4F8900040F00100C4F890008F07E3
:102D080009D5E80707D502201862D4F8900040F0EA
:102D18000400C4F890004F0709D5E80707D5042038
:102D28001862D4F8900040F00200C4F890000F0731
:102D38000BD502F02000304307D008201862D4F8E1
:102D4800900040F00800C4F890000E050AD5500124
:102D580008D54FF400601862D4F8903043F020038F
:102D6800C4F89030D4F89030002B37D08B0609D5B2
:102D780002F0200205F080552A4303D0636F0BB19F
:102D88002046984726682046D4F89020B36802F079
:102D9800280203F0400353EA020521D0FFF746FF5B
:102DA800B3685F0617D5226802F1080353E8003FAD
:102DB80023F04003083242E800310029F3D1D4F867
:102DC800800040B1714B0365FEF75EF930B1D4F86D
:102DD8008000036D7DE72046FFF755FFBDE8F081D1
:102DE800FFF751FFC4F89050F8E7E06E012840F073
:102DF800AE80CE0640F1AB80D00640F1A88010220C
:102E08001A629A6852066ED5D4F8801060480A682B
:102E180082421ED0183082421BD01830824218D00D
:102E28001830824215D01830824212D018308242AF
:102E38000FD0183082420CD01830824209D000F5E9
:102E48005670824205D01830824202D01830824231
:102E5800FFD0526892B2002AC0D0B4F85C00904209
:102E6800BCD9A4F85E20CA69B2F5807F2FD053E898
:102E7800002F22F4807243E800210029F7D103F1E2
:102E8800080252E8002F22F0010203F1080040E88E
:102E980000210029F3D103F1080252E8002F22F0A3
:102EA800400203F1080040E800210029F3D1202264
:102EB800C4F88C20E16653E8002F22F0100243E8A2
:102EC80000210029F7D1D4F88000FDF737FF02234D
:102ED800B4F85C102367B4F85E30C91A89B220468A
:102EE800FFF7DCFE7AE7B4F85E20B4F85E00B4F8C9
:102EF8005C1092B280B200283FF470AF891A89B290
:102F080000293FF46BAF53E8002F22F4907243E896
:102F180000200028F7D11F4D03F1080252E8002FC6
:102F28002A4003F1080646E800200028F4D12022B0
:102F38006067C4F88C20E06653E8002F22F0100286
:102F480043E800200028F7D102232367C7E7CF0210
:102F580009D56E0207D54FF4801220461A62BDE8E3
:102F6800F04100F01DBB080616D502F0800005F4FC
:102F78000005284310D0A36F002B3FF42FAF204645
:102F8800A7E600BF0100001020010004912C0008F2
:102F980010000240FEFFFFEF4F0611D556060FD571
:102FA80053E8002F22F0400243E800210029F7D11E
:102FB80020232046A167C4F88830FFF763FE0DE799
:102FC8000D0206D5500004D52046BDE8F04100F0BA
:102FD800E9BACB017FF502AF002ABFF6FFAE204663
:102FE800BDE8F04100F0DDBA30B504460368C069B9
:102FF80087B02169A2681D680A4361690A439C4930
:10300800024329400A43E1681A605A6822F4405290
:103018000A43A1695A60974A93421CBF226A114326
:103028009A6822F06E4222F430620A43616A9A601A
:10303800DA6A22F00F020A43DA628F4A934228D1F1
:103048008E4B5B6D03F03803182B00F02F8114D8DA
:10305800082B00F05481102B00F00281002B00F0A7
:10306800F9808023B0F5004F40F0B480082B46D893
:103078006846FFF74FFC0198E9E0202B00F0DD805F
:10308800282BEED1B0F5004F00F01D814FF4004021
:10309800BEE07B4A934215D1784B5B6D03F0070382
:1030A800052B2CD801A252F823F000BF4D3200089E
:1030B800D931000869320008B532000843320008E7
:1030C8008D3000086F4A9342E6D06F4A9342E3D0AE
:1030D8006E4A9342E0D06E4A934218D1674B5B6DBB
:1030E80003F03803182B00F0E1800AD8082B00F011
:1030F8000681102B00F0B480002B00F0AB8001207B
:1031080049E0202B00F09980282BBBD0F7E7614AD3
:103118009342C1D0604A9342BED0564A9342EED100
:1031280002F50E32936D03F00703052BE7D8DFE8AD
:1031380003F0492B3A3F034C5848594B626A65687B
:1031480033F8122005EB4501B0FBF2F39942D6D8CB
:10315800B3EB053FD3D800231946FDF7B9F82A4643
:1031680009026B0841EA10610002C0184FF0000321
:1031780041F10001FDF7ACF84A4BA0F540729A42C4
:10318800BDD82368D86005E06846FFF7C3FB0198FF
:103198000028D2D100204FF00113A3660023C4E910
:1031A8001D3307B030BD03A8FFF75EFC0498EFE7B6
:1031B80013683D4813F0200FBFD01368C3F3C10351
:1031C800D840BAE7FFF794FBE2E74FF40040B4E7D2
:1031D800042347E7082B92D86846FFF79BFB019822
:1031E80001E0FEF789FD0028D4D011E0FEF796FD36
:1031F800F9E703A8FFF738FC0498F4E71F4B2A48BF
:103208001A6812F0200F03D01B68C3F3C103D8401B
:10321800616A234B626833F81130B0FBF3F303EBB8
:103228005203B3FBF2F34FF6EF72A3F11001914290
:103238003FF665AF2268D360ACE7B0F5004F17489A
:10324800E6D140E0B0F5004FCBD1FEF755FD0028A0
:10325800A0D038E0B0F5004FC8D1FEF75FFDF6E723
:10326800B0F5004FC5D103A8FFF7FEFB0498EEE7C1
:10327800F369FFCF000C00580010014000440258C9
:103288000044004000480040004C0040005000400E
:103298000014014000780040007C004000093D0017
:1032A800C0370008FFFC0F000090D003B0F5004FB6
:1032B800A4D1154B15481A6812F0200F03D01B68CB
:1032C800C3F3C103D840124B626A616833F8122015
:1032D8004B08B0FBF2F203EB42034FF6EF72B3FB7D
:1032E800F1F3A3F1100191423FF609AF23F00F0269
:1032F800C3F34203216892B21343CB604AE7B0F5A7
:10330800004F7FF469AFB3E6004402580090D00341
:10331800C0370008836ADA0710B506D50168C46AA1
:103328004A6822F4003222434A609C0706D50168A5
:10333800046B4A6822F4803222434A60590706D552
:103348000168446B4A6822F4802222434A601A07C3
:1033580006D50168846B4A6822F4004222434A6019
:10336800DC0606D50168C46B8A6822F480522243C1
:103378008A60990606D50168046C8A6822F40052AE
:1033880022438A605A0610D50168446C4A68B4F52D
:10339800801F22F4801242EA04024A6005D14A687A
:1033A800846C22F4C00222434A601B0606D50268D8
:1033B800C16C536823F400230B43536010BD2DE9FF
:1033C800F843DDF8209004460F46164698462268D2
:1033D800D36937EA03030CBF01230023B34201D0AA
:1033E80000201EE0B9F1FF3FF2D0FDF735FCA0EB5D
:1033F8000800484525D8B9F1000F22D02068036895
:103408005A07E4D5C56915F008050CD008250562EA
:103418002046FFF70BFC00230120C4F8905084F8E5
:103428008430BDE8F883C3691B05D0D54FF4006329
:1034380003622046FFF7FAFB202384F88450C4F87F
:1034480090300320EDE773B500260446C0F890607D
:10345800FDF702FC236805461B681A071CD56FF0A8
:103468007E4332464FF40011009303462046FFF78F
:10347800A6FF88B1226852E8003F23F0800342E8A3
:1034880000310029F6D12023C4F888300320002316
:1034980084F8843002B070BD23681B685B0724D5AC
:1034A8006FF07E4300224FF48001204600932B46A4
:1034B800FFF785FFC8B1226852E8003F23F49073F4
:1034C80042E8003122680029F5D102F1080353E8E7
:1034D800003F23F0010302F1080040E80031002911
:1034E800F3D12023C4F88C30D0E720230020C4F87F
:1034F8008830C4F88C30E0662067C8E710B5044609
:1035080050B3D0F888301BB980F88430FDF7C8FA7A
:10351800226824232046C4F88830136823F0010366
:103528001360FFF761FD012816D0A36A13B1204686
:10353800FFF7F0FE236820465A6822F490425A604A
:103548009A6822F02A029A601A6842F00102BDE8DD
:1035580010401A60FFF777BF012010BD436E30B5E9
:103568002BB90123A0F86A30A0F8683030BD036891
:10357800094D9A689968094CC2F34262490F6B5C1D
:10358800615C1B01B3FBF1F3A0F86A30AB5CA25C91
:103598001B01B3FBF2F3E7E7E0370008D837000870
:1035A80070477047704790F88430012B14D0026838
:1035B8002423C0F888301168136821F0005123F0E3
:1035C80001031360002343661160202280F88430D1
:1035D800C0F88820184670470220704770B590F8E8
:1035E80084300446012B17D005682423C0F888309E
:1035F8002E682B6823F001032B60AB6823F060432F
:103608001943A960FFF7AAFF20232E60C0F888306D
:10361800002084F8840070BD0220FCE770B590F8A3
:1036280084300446012B17D005682423C0F888305D
:103638002E682B6823F001032B60AB6823F06063CE
:103648001943A960FFF78AFF20232E60C0F888304D
:10365800002084F8840070BD0220FCE72DE9F041C9
:10366800D1E9012CD1E90738D1F824E043EA08036D
:10367800D1E90376D1E90554096891B943EA0E0303
:103688000168134321F4FF4143EA0C0321F07F0151
:103698003B4333432B4323430B4303600020BDE8E4
:1036A800F081016843EA0E0321F4F8410B430360FB
:1036B80042EA0C0341683B4321F4FF42334322F0C2
:1036C8007F022B43234313434360E7E7CB6803F1AF
:1036D800FF3C4B69F0B5013B0F684C688E681B05D1
:1036E8000D69013C8969013E013D013F0139240111
:1036F80036022D04090643EA0C335AB93B43826863
:10370800234302F0704233432B430B43134383603C
:103718000020F0BD826822F4700222F470421A433D
:1037280044EA06033B438260C2682B4302F07042BE
:103738000B431343C360EBE702440346934200D1B3
:10374800704703F8011BF9E770B50D4D0D4C641B6C
:10375800A4100026A64209D10B4D0C4C00F018F815
:10376800641BA4100026A64205D170BD55F8043B81
:1037780098470136EEE755F8043B98470136F2E7DB
:10378800F0370008F0370008F0370008F437000871
:10379800F8B500BFF8BC08BC9E467047F8B500BF36
:0837A800F8BC08BC9E46704706
:1037B00000000000010203040102030406070809D7
:1037C000010002000400060008000A000C001000BE
:1037D00020004000800000010804020408010101EB
:0837E0000101010307010000D3
:0837E80020CBFF7F010000006F
:0437F000BD0200080E
:0437F400990200082E
:1037F8000090D0030090D0030100000010000000EA
:0400000508000B4D97
:00000001FF
